:020000040800F2
:10000000600D002011020008E5480008F1390008E1
:10001000E14800087D100008A54C00080000000021
:10002000000000000000000000000000994C0008E3
:10003000A511000800000000194900089D4C0008A7
:100040002B0200082B0200082B0200082B020008DC
:100050002B0200082B02000851150008711500083A
:100060007915000881150008891500089911000804
:100070002B0200082B0200082B0200082B020008AC
:100080002B0200082B0200082B0200082B0200089C
:100090002B0200082B0200082B0200089115000813
:1000A0002B0200082B0200082B0200082B0200087C
:1000B0002B0200082B0200082B0200082B0200086C
:1000C0002B0200082B0200082B0200082B0200085C
:1000D0002B0200082B0200082B0200082B0200084C
:1000E000591500082B0200082B0200082B020008FB
:1000F0002B0200082B0200082B0200082B0200082C
:100100002B0200082B0200082B0200082B0200081B
:100110002B0200082B0200082B0200082B0200080B
:100120002B0200082B0200082B0200082B020008FB
:1001300000F002F800F05DF814A696E8000CB24456
:10014000B344DA4501D100F054F8BAE80F000FA625
:1001500096E83000A5EB040504EB0607AAEB0704BC
:10016000A7F101074FEA15154FEA3414A4F1010471
:10017000AC4201D300F03DF813F0010F18BFFB1A99
:1001800043F0010300F001F8DBE71847FCC2000070
:100190001CC30000103A24BF78C878C1FAD85207AF
:1001A00024BF30C830C144BF04680C6070470000F1
:1001B000704700000023002400250026103A28BFC5
:1001C00078C1FBD8520728BF30C148BF0B607047C9
:1001D000642900F09180002070471FB59DE803005E
:1001E00000F098FC00F0CCF91FBD10B500F031FA1A
:1001F00010BD00F065FA1146FFF7EFFF04F0A0FE16
:1002000000F05CFC03B4FFF7F0FF03BC00F000FE5D
:100210000948804709480047FEE7FEE7FEE7FEE79A
:10022000FEE7FEE7FEE7FEE7FEE7FEE704480549D6
:10023000054A064B70470000A14C00083101000838
:1002400060040020600D002060070020600700208F
:100250000FB4044910B503AA029800F077F910BC56
:100260005DF814FB7C0000200FB41CB5074B06AAF8
:100270007B4469460090059800F04FF900206946DC
:1002800000F05EF91CBC5DF814FB0000CD0200001C
:100290002DE9F0410E460446002020622046E16828
:1002A000884730B3252805D0D4E901219047206A3A
:1002B000401CF2E7E168204600278847050018D077
:1002C000A5F14100192802D820354FF400673246C5
:1002D000294620462760FFF77BFF40B1012804D064
:1002E000F61D26F007060836D8E7361DD6E728465D
:1002F000DAE7206ABDE8F0812DE9F04106460024E6
:1003000010687529314616A510D0AFF3008000287B
:1003100002DA404213A507E031688A0701D512A529
:1003200002E0490704D511A5012401E0AFF30080E4
:1003300000210A2206F1240709E0B0FBF2FCB0FB21
:10034000F2F302FB1C00303078541846491C002898
:10035000F3D123462A463046BDE8F04100F07EB88E
:10036000000000002D0000002B0000002000000015
:100370004FF0000200B5134694469646203922BF3E
:10038000A0E80C50A0E80C50B1F12001BFF4F7AF89
:10039000090728BFA0E80C5048BF0CC05DF804EB6B
:1003A000890028BF40F8042B08BF704748BF20F8D9
:1003B000022B11F0804F18BF00F8012B704700008E
:1003C0004FF0013C50F8042B51F8043B9A4221D1E4
:1003D000A2EB0C03934313EACC1317D150F8042B70
:1003E00051F8043B9A4215D1A2EB0C03934313EA54
:1003F000CC130BD150F8042B51F8043B9A4209D18D
:10040000A2EB0C03934313EACC13DBD04FF00000B4
:10041000704700BFD01A01BAB1FA81F101F018019A
:1004200022FA01F0CB40DBB2C0B2C01AC1F1200108
:100430002CFA01F3D11A914311EAC311E6D17047A6
:1004400070477047704710B500F092F8006810BD13
:1004500010B5044600F08CF8046010BD2DE9F0479B
:100460000D4699469246044600F124080168880624
:1004700004D5E06921F01001216000E00120A842CC
:1004800001DD471B00E00027A1697A1902EB090092
:10049000081AA0612078C00602D42046AFF300807D
:1004A000002608E0D4E901211AF806009047206AE6
:1004B000401C761C20624E45F4DB2078C0060AD52D
:1004C0002046AFF3008006E0D4E9012130209047B8
:1004D000206A401C2062381EA7F10107F4DC07E007
:1004E000D4E9012118F805009047206A401C2062D9
:1004F000281EA5F10105F3DC2046AFF3008020782B
:10050000000602D50220BDE8F0870120FBE70000CD
:1005100001694A1C02610878704700B58FB0CDE9C7
:1005200001310021059105497944CDE903101146B7
:100530006846FFF7ADFE0FB000BD0000E5FFFFFF0E
:100540000A6802F8010B0A6070470000074B70B59B
:100550000D467B44FFF7E1FF0446284600F00CF807
:1005600010B14FF0FF3070BD204670BDFD5000004F
:100570000048704724010020007B00F08000704795
:1005800010B542485421FFF7F3FE41485421FFF7CC
:10059000EFFE40485421FFF7EBFE3F493B483C4A01
:1005A0003F4B08603D490A603A491960531C036596
:1005B000481C1065012008653B48344A39A178443D
:1005C00000F0DEF920B9384878440A3800F07FFAA4
:1005D00037482F4A35A1784400F0D2F920B9344881
:1005E00078440A3800F073FA32482A4A2FA1784436
:1005F00000F0C6F920B92F4878440A3800F067FAAD
:1006000040232248DC000021224600F096F920B168
:1006100025487844543800F05AFA1D4822464023B1
:10062000002100F08AF920B121487844543800F0C4
:100630004EFA184822461023002100F07EF90028C7
:1006400006D01C487844BDE81040563800F03FBA48
:1006500010BD104870B5006D20F001040B4800F08B
:1006600007FA0B4800F004FA0A4800F001FA09E022
:10067000206D20F00105204600F0FAF9204600F038
:1006800044F82C46002CF3D170BD00002800002057
:100690007C000020D000002000000020040000208A
:1006A000080000207200000022B200007700000065
:1006B00011B20000EAB10000004870472401002098
:1006C0007546FFF7F9FFAE4605006946534620F030
:1006D0000700854618B020B5FFF7A8FDBDE820400B
:1006E0004FF000064FF000074FF000084FF0000BEE
:1006F000AC46ACE8C009ACE8C009ACE8C009ACE85D
:10070000C00921F007018D46704770B50446051FEA
:1007100000F0E4F90068002C14BF446870BD002CA0
:1007200018BFAC423CBF20466468F8D301680A1881
:10073000AA4218BF456003D12A68054611440160EA
:1007400028684119A1421CBF6C6070BD6168696076
:1007500021680844286070BD2DE9F05F0546174602
:100760000C46C86820F4201040F48000C860800661
:1007700002D5084600F00BFBE06841F282014FF021
:10078000FF3A0140022903D0204600F09DFAB9E06B
:1007900000F42041B1F5004F0FD1C00306D56168C8
:1007A000E06A884200D80846606006E02069E0629E
:1007B0006060606904F09CFAA061A0680022EEB25B
:1007C00000280DDAE1688B050AD4C043A06041F42B
:1007D00090302260E0606068411C61600670AAE0B1
:1007E000E0689146226040F40050E060206978BBE8
:1007F000606904F07FFA04F124054FF00108A8B104
:10080000A08910F4407F08D0E06900F0B2F92061BF
:1008100018B1E06840F4006017E0C4F81C8025615E
:10082000E06820F4407040F480600EE0E06900F081
:10083000A0F900282061F0D0E06840F4006010F4D6
:10084000407FE06002D140F48070E0602069606029
:10085000E06825696FF0010BC1051ED56168E06A8B
:10086000884200D80846411B04D02246284600F0A2
:1008700035FAE8BB1FB1E562C4E9015959E0681CCB
:10088000E0626060E069401EA060E06840F4803093
:10089000E06030462E70BDE8F09F17B100F4803262
:1008A0000AE06068411C61600670E0680A2E40F44E
:1008B0008030E06006D00022E16A6068814203D99E
:1008C0000B4602E00122F7E70346B4F80CC05B1BBD
:1008D0005FEA4C5C04D4D4F81CC09C4500DD02B334
:1008E000814200D80146002BA1EB0008E56200E040
:1008F00008E0C4E9015907DD22461946284600F000
:10090000EDF908B15046C6E7B8F1000F09D0A1696A
:10091000E5626560A1EB0800A061E06840F01000AE
:10092000E06047B16168A069E562491B0844656001
:10093000A0615846AFE73046ADE770B5C468A5077B
:1009400013D0650211D4B2F5807F09D0B2F5007FD3
:1009500006D0B2F5806F08D1012300F1240106E032
:100960005D1E6FF07F46B54201D3012070BD01616D
:10097000C361416024F470611143C160002070BD07
:100980002DE9F0410C461646070047D0104600F00E
:100990006FF82078611C61280AD0722802D077286D
:1009A0003CD102E00125002405E00225042402E0F8
:1009B000082448F2020511F8010B2B2806D0622802
:1009C00009D011F8010C74280AD00BE045F003059A
:1009D00044F00204EFE745F0040544F00104EAE7BF
:1009E00044F010043846214604F08CF9411C15D01F
:1009F0000021316171604FF40071F560F161706147
:100A0000200704D530460222002100F0E1F8306DC5
:100A100040F0010030653046BDE8F0810020FBE782
:100A20002DE9F0410D460646104C206DC10704D05B
:100A3000410804D020F00104F7E722460EE05420DC
:100A400000F097F807000ED0206D47F00101084331
:100A5000542120653846FFF78BFC3A46294630463C
:100A6000BDE8F0418CE70020D6E700002800002018
:100A70002DE9F04704464FF0FF380026C568D4E959
:100A80000497A80718D0204600F05EF9384604F015
:100A900025F9002800DA4646280502D54846FFF722
:100AA00034FE4C212046FFF763FC206D20F001004E
:100AB00020653046BDE8F0874046FBE710B50446A8
:100AC000AFF300802046BDE81040FFF79BBB10B598
:100AD00000F084F9BDE8104000F07AB90048704792
:100AE0002C010020704770477047704738B50446A6
:100AF0000A4600206946AFF30080002808BF38BDD1
:100B000002460099204600F08FF9012038BD0120EF
:100B100000F0DEB9F8B5AFF30080054600200C46C2
:100B20000C2000BF0646A819A0420DD932466946DE
:100B30000020AFF30080070008BF00F0C9F900985B
:100B4000A04218BF0546C419FFF7C8FF0560074655
:100B5000F01D20F007004619284600F05FF9B44266
:100B600008BFF8BDA21B31463868BDE8F84000F068
:100B70005BB970B50646FFF7B1FF056806F10B00DB
:100B800020F00704B4429CBF002070BD2B466A6869
:100B9000BAB11068A04210D304F1080188423CBFEA
:100BA0005068586007D35168101941601168091BDB
:100BB000016058601460101D70BD13465268002A11
:100BC000E7D121462846FFF791FF0028DED170BD0E
:100BD0002DE9F041044616460D464769007B800723
:100BE0002ED0384604F086F850BB3EB3012E02D01A
:100BF000022E25D104E0204600F030F905441DE026
:100C0000384604F075F8E168002841F01001E16011
:100C100005DA204600F058F80120BDE8F081C9034C
:100C20000BD56268E16A914200D81146A26911446D
:100C30002269891A814200DD08460544002D01DA47
:100C40000220EAE7E16A6068E268814206D2910325
:100C5000E06203D522F4003141F01002A6690027BA
:100C6000AE4213DCE16A814201D90B4600E0034643
:100C700003EB060C2369ACEB030CAC4506DD8142AB
:100C800001D98C4600E084469C4505D1A7602760C9
:100C900042F02000A5620DE0AD1BE669AE1B81426B
:100CA000A66000D90846C01A281A2060581960604A
:100CB00022F0200003490840E060002084F84870DA
:100CC000ABE70000BFCFD7FFC16821F4001141F0AE
:100CD0008001C16000218160016070472DE9F74FFC
:100CE00015460C464FF0FF3B3848D768D2F814A0A1
:100CF000074209D05046A96904F038F8002819DBEA
:100D00003248C0430740EF604FF000496FF00048A1
:100D10004C4501D3464600E0264600993B465046E6
:100D2000324604F027F8A96920F00042B21A1144B3
:100D3000A96128B12846FFF7C7FF5846BDE8FE8FD6
:100D4000A41BE5D10020F9E770B504460569C06A27
:100D50006168884200D80846E16821F42011E1600A
:100D6000C90312D5A84208D02246411B2846FFF7E6
:100D7000B5FF10B14FF0FF3070BD0020E562C4E94F
:100D80000150E06820F48030E060002070BD10B5B4
:100D90000446C06820F02000E060A16AA069884293
:100DA0000DD02046FFF7D0FFE06820F4405040F01F
:100DB0001000E060A06AA0612069E062606044F217
:100DC0004001E0688843E06010BD000010000200B0
:100DD000002801D000F01CB87047000010B5014693
:100DE00002A000F05CF8012010BD000053494752FA
:100DF000545245443A2052656469726563743A20DE
:100E000063616E2774206F70656E3A2000000000E9
:100E100001491820ABBEFEE7260002000021016058
:100E2000416070470C207047034640688C4600289C
:100E300018BF88423CBF03464068F8D3186818447E
:100E4000884207D00CF1030020F00700001D411A72
:100E5000521A0146081D0A60FFF757BC10B501463B
:100E6000C268900703D0900607D5886A0AE0FFF7AA
:100E70007FFB01210160881E10BD8B694868184402
:100E80000B69C01A91F848301BB191F84910401A0B
:100E900010BD1103FCD50028FADD401E10BD70B551
:100EA00005460C460A2000E06D1C00F018F835B12C
:100EB00028780028F8D102E0641C00F010F814B182
:100EC00020780028F8D1BDE870400A2000F007B86B
:100ED00010B500F00DF8BDE81040FFF779BF08B578
:100EE00069468DF800000320ABBE08BD70470000C6
:100EF00010B5012805D0002103A0FFF7D0FF012085
:100F000010BD09A1F8E7000053494752544D454D23
:100F10003A204F7574206F662068656170206D659A
:100F20006D6F7279000000003A2048656170206D95
:100F3000656D6F727920636F72727570746564008D
:100F40000146406A826A12F0500F03D0006A026BB9
:100F5000084610470168826A42F40072826289681A
:100F600001F46021B1F5602F01D1017B11B100F0D6
:100F7000D5BB00BF816A21F480718162816AC90496
:100F800048BF00F0CBBB816A41F00101816200F0F3
:100F9000C5BB0000406A816A41F040018162C16ABC
:100FA00041F00401C16200F0C5BB0000406A00F0DE
:100FB000BFBB0000B0B582B004460020019021689C
:100FC0008A68D2074BD1886840F00100886040F2FF
:100FD0002000C2F2000000684DF68361C4F21B31AC
:100FE000A0FB0101880C01900198A0B10198013883
:100FF0000190019878B1019801380190019850B1A1
:10100000019801380190019828B1019801380190A8
:1010100001980028EAD101F0E1F921688968C9073F
:101020001CD1054603E000BF8068C00716D101F05F
:10103000D5F9411B20680329F6D38168C907F3D18C
:10104000A06A40F01000A062E06A40F00100E06297
:10105000002084F82400012002B0B0BD002002B0BE
:10106000B0BD000010B5044640F60000C4F2010017
:101070000421224601F0ACF9204610BDFEE7000035
:1010800070B5044643F208050020002140F23F12EB
:10109000EF23C4F20105002603F098FB200AE1B219
:1010A00005E000BF0436B6F5963F08BF70BD686026
:1010B0002A6892070AD42A6892075CBF2A685FEA06
:1010C000827203D42A689207F2D500BF69602A6849
:1010D000920709D42A6892075CBF2A685FEA827285
:1010E00002D42A689207F2D568602A68920709D468
:1010F0002A6892075CBF2A685FEA827202D42A6873
:101100009207F2D569602A68920709D42A68920783
:101110005CBF2A685FEA827202D42A689207F2D51D
:1011200068602A68920709D42A6892075CBF2A6817
:101130005FEA827202D42A689207F2D569602A684F
:10114000920709D42A6892075CBF2A685FEA827214
:1011500002D42A689207F2D568602A68920709D4F7
:101160002A6892075CBF2A685FEA827202D42A6802
:101170009207F2D569602A6892073FF593AF2A6813
:1011800092075CBF2A685FEA82723FF58BAF2A68DC
:101190009207F0D586E7000040F29020C2F20000EE
:1011A00000F076BC7047000010B5044640F60040E1
:1011B000C4F201004FF40041224601F009F903A0F6
:1011C0002146FFF745F8204610BD00BF4472616913
:1011D0006E56416C76653D25640D0A002DE9F0439D
:1011E00081B0176A203B147A956917F81380D26989
:1011F00008FB04F632F8237000EB08020B19013AE1
:10120000013B9BB292B280B289B203F0DFFA002EAA
:101210005AD0DDE9082343F20800C4F201004FEA86
:101220001229D2B24FEA132C5FFA83FE002302E0A8
:101230000133B34248D007EBD3042C5D03F0070120
:1012400024FA01F1C9071FD0C0F80490016889078A
:101250000AD4016889075CBF01685FEA817103D421
:1012600001688907F2D500BF426001688907DFD4B1
:10127000016889075CBF01685FEA8171D8D40168A1
:101280008907F2D5D4E700BFC0F804C00168890718
:101290000AD4016889075CBF01685FEA817103D4E1
:1012A00001688907F2D500BFC0F804E0016889072A
:1012B000BED4016889075CBF01685FEA8171B7D459
:1012C00001688907F2D5B3E7404601B0BDE8F08375
:1012D00070B553881488556804FB03F602190B4453
:1012E000013A013B92B29BB280B289B203F06EFA2E
:1012F00030040CD01FFA86FC43F20800BCF1010F49
:10130000C4F2010006D100225FEACC714ED1204622
:1013100070BD00BF2CF00103002202E002329A42AD
:10132000F2D035F812100E0A46600668B60709D4E6
:101330000668B6075CBF06685FEA867602D4066870
:10134000B607F2D5C9B24160016889070AD40168BD
:1013500089075CBF01685FEA817103D4016889076E
:10136000F2D500BF42F0010135F811100E0A4660B7
:101370000668B6070AD40668B6075CBF06685FEA67
:10138000867603D40668B607F2D500BFC9B24160BD
:1013900001688907C2D4016889075CBF01685FEAF8
:1013A0008171BBD401688907F2D5B7E735F812100F
:1013B0000A0A42600268920709D4026892075CBF79
:1013C00002685FEA827202D402689207F2D5C9B25B
:1013D0004160016889079AD4016889075CBF016888
:1013E0005FEA81713FF593AF01688907F1D58EE718
:1013F0002DE9F04383B01C461378054693B1DDE92F
:101400000A980E46571E00BFDBB2284631462246D8
:10141000CDE90098FFF7E2FEBB780544002B07F109
:101420000107F1D1284603B0BDE8F0832DE9F04F64
:1014300083B00546581892464FEA901841EA851243
:1014400040281C4640F2D420994628BFC1F14004F0
:101450004FF47A771FFA84FB92B2C2F20000A02107
:101460000223CDE900AB029701F070F8B8F1000F4C
:1014700020D0A9EB040440F2D429C2F200094FF4B1
:101480007A7700BF01351FFA8BFBA801A6B20AEBE1
:101490000B01402E28BF4026CDE9001682B24846F7
:1014A000A0210223029701F051F8A41BB8F1010812
:1014B000B344E7D103B0BDE8F08F00002DE9F04F51
:1014C00085B0C1F1400A0D46834641EA80103C29AF
:1014D000514638BF04210DF1100989B282B240F2A1
:1014E000D4204FF47A78CDE90091C2F20000A02117
:1014F0000223CDF8088001F029F83C2D24D3281DC3
:1015000086091FFA8AF040F2D42AA5F13C07C2F2FC
:10151000000A00BF0BF1010B84B24FEA8B11BDB280
:1015200009EB0400402D28BF4025CDE900058AB213
:101530005046A0210223CDF8088001F007F87F1B58
:10154000013E04EB0500E5D1049805B0BDE8F08F3D
:10155000012000F037BE000080B54FF4805000F04D
:1015600031FE4FF40050BDE8804000F02BBE00007B
:10157000022000F027BE0000042000F023BE00007F
:10158000082000F01FBE0000102000F01BBE00006D
:10159000202000F017BE0000EFF3108072B600BFED
:1015A000FEE7000010B581B00022009290F82420E0
:1015B000012A03D10221084601B010BD4B68012267
:1015C000062B80F8242033D8D0F800C003EB830327
:1015D0005A1F1F23DCF834E003FA02F40B682EEAEA
:1015E000040403FA02F22243CCF83420092B03EB63
:1015F000430249D9DCF80CE01E3A0724896894407C
:101600002EEA0404914023F001022143102ACCF871
:101610000C1043D142F20841C4F20101A1F10802C9
:10162000944543D0816A41F020018162012136E076
:10163000D0F800C00C2B03EB830213D8233A1F23EE
:10164000DCF830E003FA02F40B682EEA040403FA33
:1016500002F22243CCF83020092B03EB4302C9D815
:1016600012E000BF413A1F23DCF82CE003FA02F439
:101670000B682EEA040403FA02F22243CCF82C2071
:10168000092B03EB4302B5D8DCF810300724896836
:101690009440A34391401943CCF81010002100223C
:1016A00080F82420084601B010BD00BF0A6812026D
:1016B000F4D40A68102B42F400020A60EED140F222
:1016C0002001C2F2000109684DF68362C4F21B32A8
:1016D000A1FB0212910C01EB8101490000910099DC
:1016E0000029DBD000990139009100990029D5D05B
:1016F00000990139009100990029CFD00099013952
:10170000009100990029C9D00099013900910099F0
:1017100000294FF00001E5D1C1E7000040F284113B
:10172000C2F2000101F114000831062200F022B9D2
:101730007047000070470000002804BF0120704778
:10174000B0B50446806A28B121688868C0070CD10A
:1017500015E000BF0020E06284F82400204600F07D
:10176000A5F821688868C00709D0886820F00100C2
:10177000886000F033FE21688A68D20730D1A06A01
:10178000C00644D4A06A41F2021290430230A06223
:10179000E36981F0804080F49E3083F4402210435E
:1017A000D4E9010208BF4FF4002343EA000C531EA2
:1017B000B3FA83F35D091346B2F5807F18BF2B029D
:1017C000207D257B01284CEA450030D135B3A56A40
:1017D00045F02005A562E56A45F00105E56226E0D1
:1017E000054602E08868C007C9D000F0F7FD401B3D
:1017F00021680328F6D38868C007F3D0A06A40F0B8
:101800001000A062E06A40F00100E062A06AA06AF5
:1018100040F01000A0620120B0BD00BFD4F818C095
:101820004EF60005CFF6FF7505EB4C352B434D68A2
:10183000B2F5807F25F4694543EA05034B608B6868
:101840004FF2FD75CFF6E17503EA050343EA0003A5
:101850008B6001D0012A07D122690023CFF6F073F3
:1018600003EB025201E000BF0022CB6A23F47003B5
:101870001A43CA62896840F6FE62CFF61F721140B1
:10188000814207D10020E062A16A012262F30101D6
:10189000A162B0BDA06A40F0100020F00200A0627A
:1018A000E06A40F00100E0620120B0BD2DE9F041A6
:1018B00086B040F600450446C4F20105006805F50F
:1018C000C051002788420597049703D006B0BDE8B1
:1018D000F08100BF41F21800C4F2020001680DF16E
:1018E000080841F4007101600168032601F40071E9
:1018F00001910199016841F010010160016801F056
:10190000100101910199016841F00801016000682E
:10191000414600F00800019001980F20029005F563
:101920008060039600F05AFC28464146CDE90266E5
:1019300000F054FC40F290250820C2F20005C4F2E9
:1019400002004FF48072C5E9000705F11000802104
:101950004FF480632026CCC02846C5E9027100F010
:10196000DFF9002818BFFFF717FE25626C6206B08A
:10197000BDE8F08170B515460446006842F60002E5
:10198000C4F2010290420E4605D042F20041C4F278
:10199000010188420AD142F20440C4F20100006809
:1019A00010F4702F02D0012070BD00BF94F8240005
:1019B000012804BF022070BD012084F824002046C5
:1019C000FFF7F8FA20B1002084F82400012070BD50
:1019D00042F204402168A26AC4F2010040F6017399
:1019E0009A4300F57F7302F580729942A26243D058
:1019F000A06A20F48010A0624868400504D5A06A5F
:101A0000012262F30D30A062A26A0020D2044FF0DE
:101A1000000244BFE26A22F00602E26284F8240077
:101A2000206A40F64172C0F6000240F6AD7340F6FF
:101A3000957C00F1280EC0F60003C0F6000C8EE87D
:101A40000C106FF002020A608A682B4642F4807222
:101A50008A604C31324600F0B3F92068816801F4A5
:101A600060228168B2F5602F0CBF41F4A00141F4FF
:101A700080118160002070BD026812F4702FB7D011
:101A8000A26A42F48012A26200684005B7D4BBE7A4
:101A900010B5D0E90FE3D0F800C0DEF80020DCF884
:101AA0000010DA4054072DD511F004042AD0DCF8D8
:101AB0000010890605D4DCF8001021F00401CCF8F0
:101AC00000100422C4F2020202F17C018C454BD9C1
:101AD00040F20841C4F202018C4500F0AF8040F2B0
:101AE0001C41C4F202018C4500F0AC8040F2304150
:101AF000C4F202018C4540F0A9804FF48061C2F825
:101B00000014F3E0940745D511F0020442D0DCF84C
:101B10000010890608D4DCF8001021F00A01CCF886
:101B20000010012180F821100422C4F2020202F107
:101B30007C018C454CD940F20841C4F202018C452D
:101B400000F0B48040F21C41C4F202018C4500F068
:101B5000AF8040F23041C4F202018C4540F0AA80CF
:101B60004FF40071AEE000BF4321C4F202018C4586
:101B700044DD6B21C4F202018C4551DC4421C4F2E6
:101B800002018C4500F0A2805821C4F202018C456C
:101B900068E000BF120740F1C18011F0080108BFE2
:101BA00010BDDCF8001021F00E01CCF8001001216E
:101BB00001FA03F2CEF80420816380F82110016B52
:101BC0000022002980F8202040F09280A6E000BF8B
:101BD0004321C4F202018C4548DD6B21C4F20201AD
:101BE0008C4555DC4421C4F202018C4500F0848010
:101BF0005821C4F202018C4572E000BF0821C4F2F2
:101C000002018C4566D01C21C4F202018C456BD0C8
:101C10003021C4F202018C4524D14FF4806164E08C
:101C20006C21C4F202018C4556D08021C4F202011D
:101C30008C4517D14FF0806157E000BF0421C2F8F6
:101C4000001453E04021C2F800144FE002F588630D
:101C50004FF480219C4508BF4FF48041C2F8001426
:101C600044E000BF4FF480213FE000BF0821C4F2F0
:101C700002018C4544D01C21C4F202018C4545D0A0
:101C80003021C4F202018C452AD14FF400713EE0AC
:101C90006C21C4F202018C4534D08021C4F20201CF
:101CA0008C451DD14FF0007131E000BF022109E0E9
:101CB000202107E002F588634FF400319C4508BFFE
:101CC0004FF40051C2F8001422E000BF4FF48041ED
:101CD0000BE000BF042108E04FF4800105E000BFE5
:101CE0004FF4003113E000BF40211160C16AA9B177
:101CF000BDE81040084700BF4FF4005107E000BFA7
:101D0000022104E04FF4001101E000BF2021116026
:101D1000816A0022002980F82020E9D110BD00004E
:101D2000014600284FF0010008BF70472DE9F04739
:101D300040F2000CC4F2020C0A684FF6F8330CF5BE
:101D4000816ECBF6FD73724538BF03F5806303EBFC
:101D5000020E4CF6CD43CCF6CC43AEFB033E6FF007
:101D600003060CF5806506EA9E06D1E901A9D1F8C3
:101D70000C803CBF0025C4F20205C1E90F560226C3
:101D800081F82160166843F6F075AE4346EA0A060C
:101D9000D1E9045746EA090646EA0806D1E90643AE
:101DA0002E43374327433B43136000228A6381F865
:101DB000210081F820200020BDE8F0477047000096
:101DC00090F820C0BCF1010F04BF02207047F0B5AD
:101DD0004FF0010E80F820E090F821C0BCF1010F17
:101DE00026D14FF0020C80F821C04FF0000CC0F853
:101DF00038C0D0E900C4C56AC66BDCF80070102C8E
:101E000027F00107CCF80070006C0EFA00F070604B
:101E10000846CCF8043004BF10460A46CCF8080047
:101E2000CCF80C20DCF8000045B140F00E000DE0CD
:101E3000002180F820100220F0BD00BF20F0040037
:101E4000CCF80000DCF8000040F00A00CCF80000FC
:101E5000DCF8000040F00100CCF800000020F0BDEC
:101E6000B0B5044600F0BAFA054640F21800C2F2D6
:101E700000000078611C18BF044400BF00F0AEFAF7
:101E8000401BA042FAD3B0BDB0B582B0411E1F299D
:101E90004CD80FF20600DFE811F0210081007F002E
:101EA0007F007F007F007F00A3007F007F007F0016
:101EB0007F007F007F007F00C7007F007F007F00E2
:101EC0007F007F007F007F007F007F007F007F001A
:101ED0007F007F007F007F00EF0000BF4BF604040F
:101EE0004CF27842C0F600040025C0F60002002043
:101EF0003921234600950195FFF77AFA4FF61F0C1A
:101F000084A2002039212346CDE900C5FFF770FAED
:101F100083A00121FEF79CF9002002F0E5FC0020DF
:101F200002B0BDE8B04002F0BFBE00BFB0F5805FB8
:101F300000F0CA80B0F5005F2ED14CF26740C0F6C9
:101F400000004FF40051FEF783F94BF604044CF205
:101F50007642C0F600040025C0F6000200201E21D3
:101F6000234600950195FFF743FA4FF61F0C93A205
:101F700000201E212346CDE900C5FFF739FA0120D4
:101F8000FFF770F80020FFF76DF8012002B0BDE800
:101F9000B040FFF709B900BF02B0B0BD4BF6040472
:101FA0004CF27842C0F600040025C0F60002002082
:101FB0003921234600950195FFF71AFA4FF61F0CB9
:101FC0005CA2002039212346CDE900C5FFF710FAB5
:101FD0005BA0022102B0BDE8B040FEF739B900BFF6
:101FE0004BF604044CF27842C0F600040025C0F61B
:101FF000000200203921234600950195FFF7F8F9EA
:102000004FF61F0C53A2002039212346CDE900C50D
:10201000FFF7EEF952A00821FEF71AF9002002B0EE
:10202000BDE8B040FFF7C0B8012002F03DFE4BF61E
:1020300004044CF27842C0F600040025C0F6000209
:1020400000201E21234600950195FFF7D1F94FF698
:102050001F0C4EA200201E212346CDE900C5FFF72C
:10206000C7F94CA01021FEF7F3F8012002B0BDE83B
:10207000B04002F039BC00BF4CF25C40C0F600003A
:102080002021FEF7E5F84BF60404C0F60004002515
:1020900044A200201E21234600950195FFF7A8F9D0
:1020A0004FF61F0C44A200201E212346CDE900C597
:1020B000FFF79EF90020FFF777F8002002B0BDE897
:1020C000B04002F0F1BD00BF4BF604044CF2784280
:1020D000C0F600040025C0F6000200201E212346A1
:1020E00000950195FFF784F94FF61F0C21A20020FF
:1020F0001E212346CDE900C5FFF77AF91FA04FF452
:102100008051FEF7A5F8002002B0BDE8B04002F013
:10211000EBBB00BF4C4556454C353030000000004D
:102120004C4556454C353030202E2E2E2E20256421
:102130000D0A00004C4556454C313030000000007F
:102140004C4556454C313030202E2E2E2E20256405
:102150000D0A00004C4556454C3030300000000060
:102160004C4556454C303030202E2E2E2E202564E6
:102170000D0A000053544F500000000053544F50BC
:10218000202E2E2E2E2025640D0A0000535441527D
:10219000540000005354415254202E2E2E2E202540
:1021A000640D0A0020202020202020202020202034
:1021B000202020202000000055500000444F574EA2
:1021C0000000000040F21441C4F201010A6802421A
:1021D00014BF08607047FFF757BE00002DE9F04FAD
:1021E00082B00E68002E00F0EF80A0F18042A2F5D0
:1021F0008432870547EA922241F6004740F2004EBA
:10220000C4F201070625C4F2010EB84208BF052535
:1022100000244FF001080F234FF0000A4FF0000B8D
:10222000052A38BF1546009509E000BF0E680AF17F
:10223000010A36FA0AF204F1040400F0C58008FA33
:102240000AFC16EA0C09F1D04E684FF6FF72C1F293
:102250001002964212DC122E56D8DFE806F0350B3B
:102260004549555555555555555555555555554D42
:10227000510000BFD1F80CB046E000BF4FF6FF722E
:10228000C1F2210296420FDC0022C1F211029642F5
:102290001AD00022C1F21202964215D00022C1F2D9
:1022A0002102964210D02FE00022C1F22202964273
:1022B0000AD00022C1F23102964205D00022C1F2BA
:1022C0003202964220D100BF8A684AB1012A14BF67
:1022D000C0F814C0C0F810C04FF0080B14E000BFE5
:1022E0004FF0040B10E000BFCA6802F1080B0BE0CE
:1022F0004FF0000B08E000BFCA6802F1040B03E0D6
:10230000CA6802F10C0B00BF22460646B9F5807F71
:1023100024BF203A0436376803FA02F5AF430BFABC
:1023200002F23A433260CA79D2067FF57FAF41F2BA
:102330001807C4F202073A684FF6084342F0010258
:102340003A603A68CFF6FF7302F001020192019AF7
:102350002AF0030272440F25D75804F00C06B5404A
:10236000AF43009D05FA06F63743D7504E6840F25A
:102370000C45F202DEF8082054BF22EA090242EAC4
:102380000902C4F20105CEF808202A68B70254BF3A
:1023900022EA090242EA09022A60DEF80420B703B1
:1023A00054BF22EA090242EA0902CEF804200F23B0
:1023B000DEF80020F70354BF22EA090242EA0902CC
:1023C000CEF8002032E700BF02B0BDE8F08F000079
:1023D000002A08BF090401617047000040F258401C
:1023E000C2F2000000687047002804BF0120704757
:1023F000F0B581B0044690F83D0028B9002084F87B
:102400003C00204600F046FA242084F83D00206875
:10241000016821F001010160016841F4004101609F
:10242000016821F40041016000F088FC636848F213
:10243000A16CC0F2010C40F60011C0F23D016345F1
:102440003CBF48F28041C0F21E01884202D2012006
:1024500001B0F0BD4DF68361C4F21B31A0FB011247
:102460002168970CD1F804E04FF496762EF03F05E2
:1024700045EA92454D60774348F638160D6AC0F23A
:102480004106A7FB067625F03F07634538BF960C4B
:10249000721C3A430A62CA6948F2A0664CF6FF779A
:1024A000C0F20106B34222EA07020BD801385B00F2
:1024B000B0FBF3F001306FF31F30042898BF042005
:1024C0001BE000BFA768013857B119277B43B0FB59
:1024D000F3F001306FF31F3070B100F5804007E07A
:1024E00003EB4303B0FBF3F001306FF31F3018B17F
:1024F00000F5004001E000BF01201043C8610868FA
:10250000D4E9072320F0C00010431843086088680E
:1025100048F2FF3204F10C0790438CCF184310436C
:10252000A6698860C86820F0FF0038433043C8605F
:10253000086840F00100086000202021206484F831
:102540003D10206384F83E0001B0F0BD2DE9F04F4E
:1025500085B004460020994616460F460490FFF7C2
:102560003DFF94F83D10202927D10546206800BF83
:10257000816989071CD5FFF731FF411B20681A29A3
:10258000F6D381698907F3D500202021206384F8E0
:102590003D1084F83E00206C04F13C0A40F020001D
:1025A0002064022000218AF8001005B0BDE8F08FF9
:1025B000A2461AF83C1F012904D1022005B0BDE84B
:1025C000F08F00BF01228AF800200368DDE90F18B0
:1025D0000E9ADB0703D1036843F00103036003682D
:1025E00023F400630360222084F83D00402084F837
:1025F0003E000020206462626185608D394620853E
:102600000020CFF6FF70E062204632464B46CDE90F
:10261000008501F0EFF918B1012005B0BDE8F08F99
:10262000208D022810D0012824D0002838D1002085
:1026300003902068416903918169039103990168BE
:1026400041F40071016037E02068016841F40061E5
:102650000160EFF3108072B600200390206841699A
:102660000391816903910399016821F480610160FC
:1026700062B621E02068016821F480610160EFF317
:10268000108072B60020039020684169039181692F
:1026900003910399016841F40071016062B60BE097
:1026A0002068016841F48061016000210391416963
:1026B0000391806903900398208D002800F0CA8060
:1026C000042740F220094BF2895BC0F20107C2F2F5
:1026D0000009C1F2F84B232617E000BF204641460F
:1026E0002A4601F063FB002896D12068616A0069E0
:1026F0000870606A218D01306062481E2085618DFE
:1027000001396185010400F0A58080B2032865D8F5
:10271000022800F07F800128E0D0204639460022C0
:102720004346009501F0F0F900287FF475AF20686A
:10273000016821F480610160EFF3108072B62068B7
:10274000616A00690870606A218D01300139606238
:102750002185618D01396185D9F80010C908A1FB77
:102760000B12110A714304910499013904910499DF
:10277000002900F07B8021684A6952071DD4049922
:10278000013904910499002970D021684A695207DF
:1027900013D40499013904910499002966D0216861
:1027A0004A69520709D4049901390491049900290E
:1027B0005CD021684A695207D6D50A6842F4007293
:1027C0000A6009690170606A218D01306062481EEB
:1027D0002085608D0138608562B686E720464146D7
:1027E0002A4601F0E3FA00287FF416AF2068616AF8
:1027F00000690870606A2268411C208D616201389E
:102800002085638D013B638553695B077FF57AAF54
:1028100010696DE72046394600224346009501F0D5
:1028200073F900287FF4F8AEEFF3108072B62068D9
:10283000616A026842F40072026000690870606AAE
:10284000218D01306062481E2085608D01386085D1
:1028500062B64AE7202084F83D00002084F83E005C
:1028600000218AF8001005B0BDE8F08F002020217B
:10287000206384F83D1084F83E00206C40F0200076
:10288000206462B6012000218AF8001005B0BDE87E
:10289000F08F000010B586B045F600010068C4F264
:1028A000000100228842049202D006B010BD00BF91
:1028B00041F21804C4F20204206840F008002060CD
:1028C000206800F00800019001984FF440600290E9
:1028D000122003900320059001F5344002A9FFF770
:1028E0007DFC606840F480006060606800F48000F7
:1028F0000190019806B010BD40F2180040F2584116
:10290000C2F20000C2F2000100780A6810440860B8
:102910007047000080B542F20000C4F20200016876
:1029200041F010010160032000F08CF80F2000F04E
:1029300005F800F027F8002080BD000070B540F2D7
:102940001806C2F2000640F220013278C2F20001FD
:102950004FF47A730968B3FBF2F20446B1FBF2F16B
:10296000084600F0A1FD0F2C4FF0010508D838B93A
:102970004FF0FF3021460022002500F037F8746048
:10298000284670BD82B041F21800C4F2020001680E
:10299000022241F001010160016801F00101019191
:1029A0000199416841F080514160406800F08050D9
:1029B000009000980420C4F20100016862F31A61DB
:1029C000016002B070470000002848BF704700F067
:1029D0001F01012202FA01F11C2202EAD0004EF28C
:1029E0000012CEF2000281507047000010B54EF682
:1029F0000C5CCEF2000CDCF80030C3F3022E8EF03B
:102A00000704042C28BF0424BEF103034FF0FF3E4B
:102A10000EFA04F438BF0023A14399400EFA03F3E1
:102A20009A43114300F00F0200F160430901043A98
:102A300003F564436244002848BF02F10C03197097
:102A400010BD00004EF60C51CEF200010A684FF6A0
:102A5000FF031A4060F30A2242F0806040F0FD70EC
:102A6000086070472DE9F04182B00446007841F2D9
:102A70001C06C007C4F202064AD030685FEAC008EC
:102A800008D4306840F080503060306800F08050EA
:102A90000190019847F20007C4F200073868C005AA
:102AA00012D4386840F480703860FFF797FC054610
:102AB0003868C00508D4FFF791FC401B6428F7D99B
:102AC000032002B0BDE8F081706810F4407012D0AD
:102AD000616801F4407188420DD0706840F2404254
:102AE000C4F24222012320F4407113600023C00786
:102AF0001360716026D17068616820F440700843EB
:102B0000B8F1000F706003D4306820F0805030605E
:102B10002068810707D556F8181CA26821F44041A7
:102B2000114346F8181CC00607D556F8180C616901
:102B300020F48000084346F8180C002002B0BDE8DD
:102B4000F08100BFFFF74AFC054641F2883700BF1D
:102B500070688007CFD4FFF741FC401BB8424FF0AC
:102B60000300F5D9EAE70000002804BF0120704700
:102B70002DE9F04381B042F20008C4F20208044695
:102B8000D8F800000D4600F0070088420CD2D8F8B3
:102B9000000020F007002843C8F80000D8F8000023
:102BA00000F00700A8426ED1206841F204098107B5
:102BB000C4F2020917D5410705D5D9F8001041F430
:102BC000E061C9F80010010705D5D9F8001041F4FB
:102BD0006051C9F80010D9F80010A26821F0F00186
:102BE0001143C9F80010C00744D1D8F8000000F024
:102BF0000700A8420CD9D8F8000020F007002843AD
:102C0000C8F80000D8F8000000F00700A8423AD148
:102C10002068410707D5D9F80010E26821F4E06187
:102C20001143C9F80010000708D5D9F80000216940
:102C300020F4605040EAC100C9F80000D9F8001043
:102C400041F6003001F00C02042AC0F2B70059D05E
:102C5000082A45D14BF2F373C1F38342C0F6000357
:102C60009A5CC90342D440F60010C0F23D005043C4
:102C700048E000BF606802280AD001282AD159F82C
:102C8000041C890308D4012001B0BDE8F08300BF13
:102C900059F8041C8901F6D5D9F8001021F0030178
:102CA0000843C9F80000FFF799FB064641F2883750
:102CB000D9F80000616800F00C00B0EB810F94D0EF
:102CC000FFF78CFB801BB842F2D9032001B0BDE8AE
:102CD000F08300BF59F8041C8907D4D5DCE700BF96
:102CE00041F20020C0F27A000CE000BFD9F80010D9
:102CF00046F6B013C1F34041C0F60003595C50439F
:102D0000B0FBF1F0D9F8001046F69812C1F30311A8
:102D1000C0F60002515C40F2200220FA01F140F2BC
:102D20001C00C2F200000068C2F200021160FFF74E
:102D300005FE002001B0BDE8F083000040F2200055
:102D400041F20401C2F20000C4F202010068096805
:102D500046F6A812C1F30221C0F60002515CC84039
:102D60007047000040F2200041F20401C2F200006E
:102D7000C4F202010068096846F6A812C1F3C22134
:102D8000C0F60002515CC84070470000002804BF34
:102D9000012070472DE9F04182B00446007841F2ED
:102DA0000006C007C4F202060CD0706800F00C00E8
:102DB000042840F081803068800303D560680028D3
:102DC00000F04E81207880071BD5706810F00C0F42
:102DD00009D0706800F00C00082840F08B80706803
:102DE000C00300F187803068800703D5206901287F
:102DF00040F036813068616920F0F80040EAC10097
:102E000030602078000713D4207840072CD4E5697F
:102E1000002D00F02081706800F00C00082840F0C0
:102E2000AF80012D40F00C81012002B0BDE8F0819F
:102E3000A069002800F08C800020C4F2422001210B
:102E4000C0F88014FFF7CAFA054600BF706A800711
:102E500000F1BA80FFF7C2FA401B0228F6D903201E
:102E600002B0BDE8F08100BFF0695FEAC00808D495
:102E7000F06940F08050F061F06900F080500090FF
:102E8000009847F20007C4F200073868C0054DD427
:102E9000386840F480703860FFF7A0FA054600BF3C
:102EA0003868C00542D4FFF799FA401B6428F7D967
:102EB000032002B0BDE8F081706800F00C00082823
:102EC00003D17068C0033FF576AF6068002800F05A
:102ED0000981B0F5A02F00F01D81B0F5803F00F012
:102EE0001D81306820F480303060306820F480200C
:102EF00017E100BF2069002840F20000C4F2422020
:102F000000F08C8001210160FFF768FA054600BFE0
:102F1000306880073FF56EAFFFF760FA401B02286C
:102F2000F6D9032002B0BDE8F08100BFE0680028B8
:102F300000F09A80052800F0B180012800F0B280EE
:102F4000306A20F001003062306A20F00400ACE00A
:102F50000020C4F242200021C0F88014FFF73EFA9E
:102F6000054600BF706A80077FF54EAFFFF736FA5F
:102F7000401B0228F6D9032002B0BDE8F08100BF53
:102F80000027C4F2422700203866FFF727FA022DF7
:102F900005460DD13068800140F1D680FFF71EFA5A
:102FA000401B02284FF00300F4D902B0BDE8F081C5
:102FB000306880014FD5FFF711FA401B02284FF00F
:102FC0000300F5D9F1E700BF40F22000C2F2000093
:102FD000006844F6D351C1F26201A0FB0101480A26
:102FE000019000BF00BF0198411E002801913FF4ED
:102FF0000BAF00BF0198411E002801913FF404AFC0
:1030000000BF0198411E002801913FF4FDAE00BFB2
:103010000198411E00280191E4D1F5E600210160EC
:10302000FFF7DCF9054600BF306880077FF5E9AEA1
:10303000FFF7D4F9401B02284FF00300F4D9B4E79E
:103040007068216A00F480328A4209D1616A00F412
:103050007010884204D1002002B0BDE8F08100BFAA
:10306000012002B0BDE8F081306A20F0010030623A
:10307000306A20F004003062FFF7B0F9054641F2F3
:10308000883700BF306A800722D5FFF7A7F9401BB9
:10309000B8424FF00300F5D987E700BF306A40F02F
:1030A00004003062306A40F001003062FFF796F9A8
:1030B000054641F2883700BF306A800708D4FFF721
:1030C0008DF9401BB842F7D9032002B0BDE8F0816A
:1030D000B8F1000F3FF59BAEF06920F08050F06131
:1030E00095E600BF306820F480303060306820F40E
:1030F00080203060FFF772F9054600BF306880031A
:103100007FF560AEFFF76AF9401B64284FF00300BB
:10311000F4D94AE7306840F480203060306840F4E9
:1031200080303060FFF75AF9054600BF30688003F1
:103130003FF548AEFFF752F9401B6428F6D903204B
:1031400002B0BDE8F08100BF206AB0F5803F05D134
:103150007168A26821F40031114371607168626A7C
:1031600021F4741111430843706001203866FFF7A1
:1031700035F90446306880013FF56DAFFFF72EF951
:10318000001B02284FF00300F4D90EE770B538B1E8
:103190000446406A30B10020206104F1140007E0C9
:1031A000012070BD6068B0F5827F03D004F11C007F
:1031B000002101600026A66294F8510020B9204643
:1031C00084F8506000F038F8022084F8510094E848
:1031D000071001F48271036802F4044223F04003F3
:1031E0000360236911440CF40062114403F00202ED
:1031F0006369114403F00102A369E569114403F412
:103200000072114405F03802256A114405F080026D
:10321000A56A114305F4005211430160042101EA3B
:1032200013414160C16921F40061C16101206665FB
:1032300084F85100304670BD70B586B040F6000489
:10324000C4F20104006804F5205100268842049667
:1032500002D006B070BD00BF41F21800C4F20200F7
:10326000016802AD41F480510160016801F48051B0
:1032700001910199016841F004010160006829464B
:1032800000F0040001900198A02002900220039019
:10329000032005902046FEF7A1FF4020CDE902065D
:1032A000204629460496FEF799FF06B070BD00003F
:1032B0002DE9F04182B0044690F85000012803D176
:1032C000022002B0BDE8F08101201D4616460F46DF
:1032D00084F85000FFF782F894F8511001290DD1BD
:1032E0008046002F4FF0010018BF002E0ED10021A4
:1032F00084F8501002B0BDE8F08100BF0220002128
:1033000084F8501002B0BDE8F08100BF0320002116
:1033100084F8510061652763A686E686A163A187CC
:10332000E187A0682164B0F5004F2068616407D18F
:10333000016821F040010160016841F480410160B1
:103340000168490603D4016841F0400101606168E9
:10335000731EE268B1FA81F1B3FA83F349095B099C
:10336000B2F5006F41EA03013AD131B137F8021BDF
:10337000C1602763E08E0138E086E08E002869D0C6
:10338000681C0CD11BE000BF216B31F8022BC2601E
:103390002163E08E0138E086E08E00285AD0206854
:1033A00081688907F0D4FFF719F8A0EB0800A8425C
:1033B000F2D338E0FFF712F8E08E00284AD02068F8
:1033C00081688907F6D5216B31F8022BC260216331
:1033D000E08E0138E086E08E0028F0D13AE000BFB0
:1033E00039B139780173206B01302063E08E0138E8
:1033F000E086E08E70B3681C0BD11BE0216B09786E
:103400000173206B01302063E08E0138E086E08E8E
:1034100000B3206881688907F0D4FEF7DFFFA0EBD6
:103420000800A842F3D3032035E000BFFEF7D6FF23
:10343000E08E78B1206881688907F7D5216B09781B
:103440000173206B01302063E08E0138E086E08E4E
:103450000028EFD1204680212A46434601F0AAFBEE
:1034600028B1606D40F02000606520206065A06894
:1034700038B9002001902068C168019180680190EE
:103480000198606D30B10120002184F8501002B025
:10349000BDE8F0810020012184F85110002184F85A
:1034A000501002B0BDE8F081411E0020B0EB116F5A
:1034B0001CBF012070474EF21002CEF20002516094
:1034C0004EF62351CEF20001F0230B7007219060DD
:1034D0001160704790F83C20012A4FF0020242D060
:1034E00010B580F83D200268D2F804E0D2F808C098
:1034F0000C682EF07003234340F6FF34C4F200043E
:10350000A242536010DCB2F1804F1FD040F2004362
:10351000C4F200039A4219D040F60003C4F200033B
:103520009A4213D017E000BF40F60043C4F20003F4
:103530009A420BD043F20043C4F201039A4205D0F1
:1035400042F60043C4F201039A4204D149682CF0C8
:103550008003194391600121002280F83D1080F81A
:103560003C20BDE81040104670470000002804BF12
:103570000120704710B5044690F83D0028B900209E
:1035800084F83C00204600F085F8022084F83D00D5
:10359000206840F6FF330268C4F2000343F2004C97
:1035A0009842C4F2010C21DCB0F1804F2CD040F2E3
:1035B0000041C4F20001884226D040F60001C4F266
:1035C0000001884220D0984224DCB0F1804F2FD0F7
:1035D00040F20041C4F20001884229D040F60001C7
:1035E000C4F20001884223D026E000BF40F600412B
:1035F000C4F20001884207D0604505D042F6004180
:10360000C4F201018842DED1A16822F070020A43AF
:103610009842DADD40F60041C4F20001884207D04A
:10362000604505D042F60041C4F20101884203D151
:10363000216922F440720A43A36922F08001D4F880
:1036400004E0E268194360450160C262C0F828E006
:1036500005D042F60041C4F20101884201D16169FE
:10366000016301214161002084F8461084F83E1076
:1036700084F83F1084F8401084F8411084F8421018
:1036800084F8431084F8441084F8451084F83D1001
:1036900010BD000082B0006841F20041C4F2000198
:1036A000884215D042F60041C4F2010188421CD183
:1036B00041F21800C4F20200016841F400610160A7
:1036C000006800F400600190019802B0704700BFEC
:1036D00041F21800C4F20200416841F0200141604B
:1036E000406800F020000090009802B07047000091
:1036F00090F83C20012A4FF0020200F0C58080B50E
:1037000080F83D20D0F800C04FF67772DCF8083022
:1037100023EA0202CCF808200B684F2B28DC1F2B71
:1037200044DD202B45D0302B43D0402B40F0AE80E1
:10373000D1F804E0C968DCF82030DCF8202022F061
:103740000102CCF82020DCF8182022F0F00242EA36
:10375000011123F00A0242EA0E02CCF81810CCF84C
:103760002020DCF8081041F0470121F0300180E012
:103770006F2B27DDB3F5005F48D0B3F5805F7AD0BB
:10378000702B40F08380D1E901E3C968DCF80820A0
:1037900043EA0E0322F47F4243EA01211143CCF8AD
:1037A0000810DCF8081041F0770162E00BB1102B33
:1037B0006CD1DCF8081021F07001194341F00701C9
:1037C00057E000BF502B35D0602B5FD1D1F804E01B
:1037D000C968DCF82030DCF8202022F01002CCF898
:1037E0002020DCF8182022F4704242EA013123F054
:1037F000A00242EA0E12CCF81810CCF82020DCF817
:10380000081041F0670121F0100132E0D1E901E335
:10381000C968DCF8082043EA0E0322F47F4243EA39
:1038200001211143CCF80810DCF8081041F4804164
:103830001FE000BFD1F804E0C968DCF82030DCF8F4
:10384000202022F00102CCF82020DCF8182022F001
:10385000F00242EA011123F00A0242EA0E02CCF819
:103860001810CCF82020DCF8081041F0570121F0A6
:103870002001CCF808100022012180F83D10002121
:1038800080F83C10BDE88040104670470122F3E705
:10389000002804BF0120704710B5044690F841008D
:1038A00028B9002084F84000204600F063F8242066
:1038B00084F841002068D4E90212C36823F400535D
:1038C000C360036923F440531A430261D4E904231B
:1038D0001143C268194341F20C639A431143C1601A
:1038E0004169A26921F44071114343F60002C4F218
:1038F00001029042416103D0FFF720FA02E000BFCD
:10390000FFF730FAD4E90023192148439900B0FBAE
:10391000F1F048F21F5CC5F2EB1CA0FB0C314FF636
:103920009C734909C0F6FF7301FB0300322303EBCC
:103930000010A0FB0C03F02000EA531000EB011074
:10394000C3F34311084490601069202120F4904093
:103950001061506920F02A005061D06840F4005096
:10396000D0600020606484F8411084F842106063E5
:1039700010BD000070B586B040F60004C4F201042A
:10398000006804F5405100268842049602D006B033
:1039900070BD00BF41F21800C4F20200016802AD20
:1039A00041F480410160016801F480410191019975
:1039B000016841F0040101600068294600F004003C
:1039C000019001984FF400700290022003900320B0
:1039D00005902046FEF702FC4FF48060CDE9020618
:1039E000204629460496FEF7F9FB06B070BD00009C
:1039F000FEE700002DE9F04782B0044600689A46D1
:103A00000B9D0A9E0368914643F48062026002683F
:103A10000F4642F48071016020464FF001110022F0
:103A20003346009500F070F850B120680068C0057A
:103A300044BF4FF400702064032002B0BDE8F0875B
:103A400040F202082068C0F2010807F0FE07076193
:103A50002046414632462B4600F03CF920B1012079
:103A600002B0BDE8F08700BF0020019020682A4620
:103A7000416901918069314601900198204600F02A
:103A8000DDF9B0B92068BAF1010F09D04FEA192168
:103A90000161204631462A4600F0D0F948B9206835
:103AA0005FFA89F10161204631462A4600F0C6F9E5
:103AB00060B1206C0428D2D12068016841F4007103
:103AC0000160012002B0BDE8F08700BF206800223D
:103AD0000168334641F48071016020464FF00111C6
:103AE000009500F011F800289FD147F0010C2768DD
:103AF0002046414632462B46C7F810C002B0BDE80A
:103B0000F04700F0E7B800002DE9F04105460068F5
:103B10001E46144601F47F0201338FB242D0DDF815
:103B20001880B2F5803F40F0878040693840C01B64
:103B3000B0FA80F04009A04240F0C8804EB924E0BD
:103B400040693840C01BB0FA80F04009A04240F004
:103B5000BD80FEF743FCA0EB08012868B142EFD915
:103B600041693940C91BB1FA81F14909A142E7D144
:103B70009BE000BF40693840C01BB0FA80F04009AC
:103B8000A0424FF0000040F0A280FEF727FC28681A
:103B900041693940C91BB1FA81F14909A142E9D112
:103BA00083E000BFB2F5803F24D100BF41693940B6
:103BB000C91BB1FA81F14909A14240F087804169EE
:103BC0003940C91BB1FA81F14909A14240F07E8018
:103BD00041693940C91BB1FA81F14909A14275D146
:103BE00041693940C91BB1FA81F14909A142DDD0CF
:103BF0006CE000BF81693940C91BB1FA81F1490904
:103C0000A14263D181693940C91BB1FA81F14909E7
:103C1000A1425BD181693940C91BB1FA81F14909DF
:103C2000A14253D181693940C91BB1FA81F14909D7
:103C3000A142DFD04AE000BF80693840C01BB0FA23
:103C400080F04009A04241D146B923E08069384064
:103C5000C01BB0FA80F04009A04237D1FEF7BEFB8E
:103C6000A0EB08012868B142F0D981693940C91B2D
:103C7000B1FA81F14909A142E8D116E080693840E2
:103C8000C01BB0FA80F04009A0424FF0000018BFFE
:103C9000BDE8F081FEF7A2FB286881693940C91BA5
:103CA000B1FA81F14909A142E8D10020202128631D
:103CB00085F83D1085F83E00296C41F0200129640B
:103CC00085F83C000120BDE8F08100BF0020BDE880
:103CD000F0810000F0B581B0044600681D464369DC
:103CE0008FB203EA0701B94202D1002001B0F0BD52
:103CF0004169164601323FD049053FD4CEB100BFDD
:103D0000FEF76CFB411B2068B14203D94169394081
:103D1000B94215D141693940B942E6D041694905F6
:103D2000EED52BE041693940B942DED04169490501
:103D300024D4FEF753FB206841693940B942F1D0E1
:103D4000202023E041693940B942CED0416949057C
:103D500014D441693940B942C7D0416949050DD4ED
:103D600041693940B942C0D04169490506D4416929
:103D70003940B942B9D041694905E3D5016841F4F8
:103D8000007101606FF480614161042000212022F4
:103D9000216384F83D2084F83E10226C1043206497
:103DA00084F83C10012001B0F0BD000070B504465D
:103DB0000068154650F8143F5A063DD40E4629B9FE
:103DC00026E000BF50F8141F490635D40168C90623
:103DD00021D4FEF703FB411B2068B142F2D94169AF
:103DE0004906EFD400202021206384F83D1084F898
:103DF0003E00206C40F0200018E000BFFEF7EEFA15
:103E0000206850F8141F4906ECD50168490613D400
:103E10000168C906F2D56FF0100101600020202171
:103E2000206384F83D1084F83E00206C206400205C
:103E300084F83C00012070BD002070BD70B503689F
:103E4000044653F8140F000611D40E46481C29D01E
:103E500086BB00BF1868400527D4FEF7BFFA236869
:103E600053F8140F000637D518680006F2D5002065
:103E700070BD00BF18680006F9D41868400514D456
:103E800018680006F3D4186840050ED418680006B8
:103E9000EDD41868400508D4186800064FF00000FB
:103EA00048BF70BD18684005E4D56FF480601860A5
:103EB000042012E0154603E053F8140F0006D6D490
:103EC00018684005F1D4FEF789FA401B2368B04218
:103ED000F2D958690006EFD4202000212022216366
:103EE00084F83D2084F83E10226C104320640120A9
:103EF00084F83C1070BD00002DE9F04790B041F20D
:103F00000004C4F20104A4F5806543F208062846C3
:103F100010210022C4F201064FF010090027FEF71D
:103F200057FA0A20FDF79CFF2846102101224FF086
:103F30000108FEF74DFA0A20FDF792FF20464FF4E4
:103F4000805100228DF83F80FEF742FA40F2283A75
:103F5000C2F2000A0DF13F01504601226423FFF72F
:103F6000A7F920464FF480510122FEF731FA642070
:103F7000FDF776FF42F63940C3F20040CDF83A0033
:103F800002208DF83E00CB208DF83F0020464FF4F4
:103F900080510022FEF71CFA0DF13F01504601222C
:103FA0006423FFF785F920464FF480510122FEF784
:103FB0000FFA20464FF480510122FEF709FA0DF165
:103FC0003A01504605226423FFF772F920464FF468
:103FD00080510022FEF7FCF94FF44140ADF8370064
:103FE00030208DF83900CF208DF83F0020464FF467
:103FF00080510022FEF7ECF90DF13F0150460122FD
:104000006423FFF755F920464FF480510122FEF753
:10401000DFF920464FF480510122FEF7D9F90DF166
:104020003701504603226423FFF742F920464FF43C
:1040300080510022FEF7CCF98520ADF834007820BD
:104040008DF83600E8208DF83F0020464FF480516F
:104050000022FEF7BDF90DF13F0150460122642315
:10406000FFF726F920464FF480510122FEF7B0F900
:1040700020464FF480510122FEF7AAF90DA95046BF
:1040800003226423FFF714F920464FF480510022E5
:10409000FEF79EF9EA208DF83F0020464FF480514C
:1040A0000022ADF83270FEF793F90DF13F01504652
:1040B00001226423FFF7FCF820464FF480510122CF
:1040C000FEF786F920464FF480510122FEF780F971
:1040D0000DF13201504602226423FFF7E9F8204631
:1040E0004FF480510022FEF773F940F26430C8F2B9
:1040F0001210CDF82E00ED208DF83F0020464FF431
:1041000080510022FEF764F90DF13F015046012273
:104110006423FFF7CDF820464FF480510122FEF7CB
:1041200057F920464FF480510122FEF751F90DF165
:104130002E01504604226423FFF7BAF820464FF4BC
:1041400080510022FEF744F920208DF82D00F72041
:104150008DF83F0020464FF480510022FEF738F9D9
:104160000DF13F01504601226423FFF7A1F82046DC
:104170004FF480510122FEF72BF920464FF4805175
:104180000122FEF725F90DF12D015046012264238D
:10419000FFF78EF820464FF480510022FEF718F901
:1041A00023208DF82C00C0208DF83F0020464FF4CE
:1041B00080510022FEF70CF90DF13F01504601221B
:1041C0006423FFF775F820464FF480510122FEF773
:1041D000FFF820464FF480510122FEF7F9F80BA9B1
:1041E000504601226423FFF763F820464FF48051C4
:1041F0000022FEF7EDF8C1208DF83F0020464FF475
:10420000805100228DF82B90FEF7E2F80DF13F016E
:10421000504601226423FFF74BF820464FF48051AB
:104220000122FEF7D5F820464FF480510122FEF717
:10423000CFF80DF12B01504601226423FFF738F827
:1042400020464FF480510022FEF7C2F842F63E00AD
:10425000ADF82900C5208DF83F0020464FF480516D
:104260000022FEF7B5F80DF13F015046012264230C
:10427000FFF71EF820464FF480510122FEF7A8F800
:1042800020464FF480510122FEF7A2F80DF12901DA
:10429000504602226423FFF70BF820464FF480516A
:1042A0000022FEF795F886208DF82800C7208DF8AB
:1042B0003F0020464FF480510022FEF789F80DF1AF
:1042C0003F01504601226423FEF7F2FF20464FF4DF
:1042D00080510122FEF77CF820464FF480510122E4
:1042E000FEF776F80AA9504601226423FEF7E0FFA4
:1042F00020464FF480510022FEF76AF848208DF8DE
:1043000027004FF0360920464FF4805100228DF8E7
:104310003F90FEF75DF80DF13F0150460122642306
:10432000FEF7C6FF20464FF480510122FEF750F8F9
:1043300020464FF480510122FEF74AF80DF1270183
:10434000504601226423FEF7B3FF20464FF480510C
:104350000022FEF73DF855208DF826003A208DF812
:104360003F0020464FF480510022FEF731F80DF156
:104370003F01504601226423FEF79AFF20464FF486
:1043800080510122FEF724F820464FF4805101228B
:10439000FEF71EF80DF12601504601226423FEF7B8
:1043A00087FF20464FF480510022FEF711F84FF4AA
:1043B000C050ADF82400B1208DF83F0020464FF4E6
:1043C00080510022FEF704F80DF13F015046012212
:1043D0006423FEF76DFF20464FF480510122FDF764
:1043E000F7FF20464FF480510122FDF7F1FF09A9A4
:1043F000504602226423FEF75BFF20464FF48051B3
:104400000022FDF7E5FF48F20820ADF82100272043
:104410008DF82300B6208DF83F0020464FF48051E0
:104420000022FDF7D5FF0DF13F0150460122642324
:10443000FEF73EFF20464FF480510122FDF7C8FFF2
:1044400020464FF480510122FDF7C2FF0DF12101FA
:10445000504603226423FEF72BFF20464FF4805181
:104460000022FDF7B5FFF2208DF83F0020464FF403
:10447000805100228DF82070FDF7AAFF0DF13F0159
:10448000504601226423FEF713FF20464FF480516B
:104490000122FDF79DFF20464FF480510122FDF7D8
:1044A00097FF08A9504601226423FEF701FF20462A
:1044B0004FF480510022FDF78BFF26208DF83F003E
:1044C00020464FF4805100228DF81F80FDF780FFB9
:1044D0000DF13F01504601226423FEF7E9FE20461C
:1044E0004FF480510122FDF773FF20464FF48051B5
:1044F0000122FDF76DFF0DF11F01504601226423DB
:10450000FEF7D6FE20464FF480510022FDF760FFF3
:1045100043F20F10C0F62B40049040F60E00CFF28D
:104520004E10059040F23770C0F21030069040F601
:104530000E10ADF81C00E0208DF83F0020464FF42F
:10454000805100228DF81E70FDF742FF0DF13F01F2
:10455000504601226423FEF7ABFE20464FF4805103
:104560000122FDF735FF20464FF480510122FDF76F
:104570002FFF04A950460F2264230F25FEF798FE53
:1045800020464FF480510022FDF722FF40F60060E4
:10459000C0F21430CDF8010040F21170CCF23110AD
:1045A000CDF8050040F64800C0F60F40CDF80900F0
:1045B00043F23160ADF80D00E1208DF83F00204658
:1045C0004FF4805100228DF80F50FDF701FF0DF1DF
:1045D0003F01504601226423FEF76AFE20464FF455
:1045E00080510122FDF7F4FE20464FF48051012254
:1045F000FDF7EEFE0DF1010150460F226423FEF798
:1046000057FE20464FF480510022FDF7E1FE1120B5
:104610008DF83F0020464FF480510022FDF7D8FE70
:104620000DF13F01504601226423FEF741FE204672
:104630004FF480510122FDF7CBFE0120FDF710FC65
:1046400029208DF83F0020464FF480510022FDF7CD
:10465000BFFE0DF13F01504601226423FEF728FE04
:1046600020464FF480510122FDF7B2FE28208DF83C
:10467000000020464FF4805100228DF83F90FDF756
:10468000A7FE0DF13F01504601226423FEF710FE04
:1046900020464FF480510122FDF79AFE20464FF448
:1046A00080510122FDF794FE6946504601226423A1
:1046B000FEF7FEFD20464FF480510022FDF788FEF4
:1046C0000020002140F23F12EF2300F07FF800208D
:1046D00004E000BF0430B0F5963F73D077603168D6
:1046E000890709D4316889075CBF31685FEA817145
:1046F00002D431688907F2D577603168890709D417
:10470000316889075CBF31685FEA817102D4316822
:104710008907F2D577603168890709D4316889073C
:104720005CBF31685FEA817102D431688907F2D5D4
:1047300077603168890709D4316889075CBF3168BF
:104740005FEA817102D431688907F2D577603168F8
:10475000890709D4316889075CBF31685FEA8171D4
:1047600002D431688907F2D577603168890709D4A6
:10477000316889075CBF31685FEA817102D43168B2
:104780008907F2D577603168890709D431688907CC
:104790005CBF31685FEA817102D431688907F2D564
:1047A0007760316889073FF595AF316889075CBF4D
:1047B00031685FEA81713FF58DAF31688907F0D5C7
:1047C00088E700BF10B0BDE8F0870000F0B583B007
:1047D0000F46010A8DF80600100A41F200048DF818
:1047E00007002A20C4F201048DF805108DF8082076
:1047F0008DF8090020464FF4805100221E46FDF737
:10480000E7FD40F22835C2F200050DF10901284606
:1048100001226423FEF74CFD20464FF48051012213
:10482000FDF7D6FD20464FF480510122FDF7D0FD63
:104830000DF10501284604226423FEF739FD2046C8
:104840004FF480510022FDF7C3FD380A8DF80100B6
:10485000300A8DF803002B208DF80A0020464FF413
:10486000805100228DF802708DF80460FDF7B0FDD4
:104870000DF10A01284601226423FEF719FD2046A6
:104880004FF480510122FDF7A3FD20464FF48051E3
:104890000122FDF79DFD0DF101012846042264234C
:1048A000FEF706FD20464FF480510022FDF790FDF3
:1048B0002C208DF80B0020464FF480510022FDF78C
:1048C00087FD0DF10B01284601226423FEF7F0FC61
:1048D00020464FF480510122FDF77AFD03B0F0BD70
:1048E000FEE70000FEE7000010B5044640F60000B9
:1048F000C4F201004FF400412246FDF769FD03A018
:104900002146FBF7A5FC204610BD00BF50554D5079
:104910003D25640D0A0000007047000010B501F04D
:10492000F0FA4FF60063C4F2AF03002201F03CF945
:104930004CF6CD424CF6CC43CCF6CC42C4F2080344
:1049400001F0F2FA01F042F80021C4F2163101F050
:1049500045FD0021C4F27A4101F0BAFE4FF08141D9
:10496000044601F027FD0021002818BF4FF08144C4
:10497000C4F2A011204601F008FD00281CBF00244D
:10498000C4F2A014204601F0C7FC0023CCF21003AF
:10499000002201F04DF849F20003C4F28A0300221C
:1049A00001F0C2FA01F012F810BD0000F0B581B0BC
:1049B00001F0A7FA4FF60063C4F2AF03002201F042
:1049C000F3F84CF6CD444CF6CC45CCF6CC44C4F2CE
:1049D000080522462B4601F0A7FA00F0F7FF01F088
:1049E0009BFC06460F462046294632463B4601F0D0
:1049F000A5FB02460B463046394601F0D5F848F68D
:104A00000003C4F2C303002201F08EFA00F0DEFFBF
:104A100001F082FC00F02CFE00F0D8FF01F07CFCDD
:104A20004CF2C2324AF6EE73C6F6B472C3F62E7377
:104A300004460D4601F078FA4BF6900247F6FD73F6
:104A4000C6F6DE62C3F6527300F0F2FF40F619526A
:104A500048F6EB0306460F46C1F21742C3F67763EA
:104A60002046294601F060FA22462B4601F05CFA06
:104A700022462B4601F058FA32463B4600F0D8FF5A
:104A80000B4600210246C3F6F071002001F08CF8BD
:104A900000F09CFF01F040FC41F26623CCF2710370
:104AA0004FF0663200F0C4FF00F090FF01B0F0BD9F
:104AB000F0B581B001F025FA4FF60063C4F2AF0300
:104AC000002201F071F84CF6CD444CF6CC45CCF602
:104AD000CC44C4F2080522462B4601F025FA00F02A
:104AE00075FF01F019FC06460F462046294632465E
:104AF0003B4601F023FB02460B463046394601F0A7
:104B000053F848F60003C4F2C303002201F00CFA84
:104B100000F05CFF01F000FC00F0AAFD00F056FF81
:104B200001F0FAFB4CF2C2324AF6EE73C6F6B472EA
:104B3000C3F62E7304460D4601F0F6F94BF69002CB
:104B400047F6FD73C6F6DE62C3F6527300F070FFDF
:104B500040F6195248F6EB0306460F46C1F21742DB
:104B6000C3F677632046294601F0DEF922462B463C
:104B700001F0DAF922462B4601F0D6F932463B46DF
:104B800000F056FF0B4600210246C3F6F0710020EC
:104B900001F00AF800F01AFF01F0BEFB41F26623B3
:104BA000CCF271034FF0663200F042FF00F00EFFCE
:104BB00001B0F0BD2DE9F04182B01E4690460D4691
:104BC0000446FDF70BFC301A00EB0807FDF706FC66
:104BD00040F22001C2F200010968C1F3CB317943F0
:104BE000019121688A682A40AA4227D1064618F115
:104BF00001001FD0FDF7F2FB801BB84222D20198C2
:104C000001990028A1F1010101912168896808BF7B
:104C1000074601EA0500A842ECD00FE0886828406A
:104C2000A8420BD188682840A84207D1886828404C
:104C3000A84203D188682840A842EFD0002002B0E3
:104C4000BDE8F081D4E900014268B1F5827F22F02D
:104C5000E00242600AD1A168B1F5004F02D0B1F57F
:104C6000806F03D1016821F040010160A16AB1F5B4
:104C7000005F07D1016821F400510160016841F42F
:104C800000510160012084F85100002084F8500098
:104C9000032002B0BDE8F08170470000FDF72CBE94
:104CA00070470000FEE7000010B5044641F2000026
:104CB000C4F201004FF400512246FDF789FB03A026
:104CC0002146FBF7C5FA204610BD00BF5761746549
:104CD0007256616C76653D25640D0A0048F2040148
:104CE000411A002011F1030F38BF4FF0FF30704719
:104CF0000020704748F20101411A0020032938BF03
:104D000001207047002804BF4FF0FF30704710B5F6
:104D1000044600783A281CBF4FF0FF3010BD4BF21C
:104D2000E471C0F600012046FBF74AFBB0B14BF23C
:104D3000EB71C0F600012046FBF742FB90B14BF24D
:104D4000DC71C0F600012046FBF73AFB01464FF04C
:104D5000FF30002908BF48F2030010BD48F20100EF
:104D600010BD00BF48F2020010BD00004FF0FF3040
:104D70007047000048F20303984221D048F2020332
:104D800098421CBF4FF0FF307047CAB1B0B540F633
:104D9000006412F0030CCEF2000413D00B4613F89B
:104DA00001EBD4F88000C0071CBF20685FEAC07028
:104DB0000ED1BCF1010F1DD1511E042A4BD35FE06F
:104DC000002070470B461146042A44D358E000BF28
:104DD0004FF06040056835B9056825B9056815B913
:104DE0000568002DF6D04FF0604080F800E0BCF17F
:104DF000010FE1D04B78D4F88000C0071CBF2068B9
:104E00005FEAC07008D1BCF1020F16D18B1C911E55
:104E1000042A20D334E000BF4FF06040056835B964
:104E2000056825B9056815B90568002DF6D04FF05D
:104E300060400370BCF1020FE8D091F802C0D4F8D2
:104E40008000CB1CC0071CBF20685FEAC07005D182
:104E5000D11E042A14D20020B0BD00BF4FF0604024
:104E6000016831B9016821B9016811B901680029E7
:104E7000F6D04FF0604080F800C0D11E042AEAD37B
:104E80004FF0604206E000BF107000BF043903F12C
:104E90000403E0D01878D4F88050ED071CBF2568D3
:104EA0005FEAC57528D15878D4F88050ED071CBF4B
:104EB00025685FEAC5752BD19878D4F88050ED0746
:104EC0001CBF25685FEAC5752ED1D878D4F880500C
:104ED000ED071CBF25685FEAC575D7D01568002DA2
:104EE000D2D11568002DCFD11568002DCCD1156811
:104EF000002DF3D0C8E700BF156835B9156825B98E
:104F0000156815B91568002DF6D01070CBE700BFF5
:104F1000156835B9156825B9156815B91568002DD6
:104F2000F6D01070C8E700BF156835B9156825B907
:104F3000156815B91568002DF6D01070C5E700008A
:104F4000A8B0FDF7E7FC00240120CDE90744CDE936
:104F50000544029006904FF480104FF480310225F2
:104F60000B9002A82194CDE91F44CDE91D44CDE961
:104F70000314CDE90951FDF709FF28B1EFF31080C3
:104F800072B600BFFEE700BF0F20CDE923054FF446
:104F90008060CDE9260423A802212594FDF7E4FDD5
:104FA00020B1EFF3108072B6FEE700BF4FF400406F
:104FB0004FF0020A1E901CA8CDF870A0FDF752FD1C
:104FC00020B1EFF3108072B6FEE700BF41F2180483
:104FD000C4F20204206840F6004940F0100020604E
:104FE0002068C4F2010900F01000029002982068C5
:104FF00009F5806640F02000206020684FF443519E
:1050000000F02000029002982068002240F0040086
:105010002060206800F0040002900298206840F0B0
:1050200008002060206800F00800029002983046D6
:10503000FDF7CEF9A9F58065284648F6141100223F
:10504000FDF7C6F948464CF270010022FDF7C0F9A1
:105050004FF4005002AF02904FF00108304639463D
:10506000CDE90388CDF814A0FDF7B8F840F2000BA5
:105070000B20C1F2110B02900BF580100390002061
:10508000049028463946FDF7A9F848F21400CDE906
:10509000020828463946CDE9048AFDF79FF83020FA
:1050A000CDE9020B30463946CDF81080FDF796F871
:1050B0000420CDE9020B0020049048463946FDF754
:1050C0008DF84FF44050CDE9020B48463946CDF8F3
:1050D0001080FDF783F844F27000CDE9020800204B
:1050E0000490484639464FF0000BCDF814A0FDF768
:1050F00075F84FF40040CDE9020848463946CDE93D
:10510000048AFDF76BF84FF4865002A981E8010983
:1051100030463946CDF814A0FDF760F84FF44070E2
:1051200002900320039030463946FDF757F84FF4BC
:10513000106002A981E8010928463946CDF814A07B
:10514000FDF74CF8062000210022FDF74FFC062059
:10515000FDF73AFC072000210022FDF747FC07205D
:10516000FDF732FC0820002100220825FDF73EFC57
:105170000820FDF729FC092000210022FDF736FC5C
:105180000920FDF721FC0A20002100220A26FDF754
:105190002DFC0A20FDF718FC172000210022FDF746
:1051A00025FC1720FDF710FC282000210022FDF728
:1051B0001DFC2820FDF708FC54F8040C002140F0E9
:1051C000010044F8040C54F8040C002200F0010023
:1051D000029002980B200024FDF708FC0B20FDF73D
:1051E000F3FB40F2283009F51051C2F200004FF4F1
:1051F00000734FF4827280E81600C0E90344C0E9EE
:105200000543C0E90754C0E90944C662FDF7BEFF83
:1052100020B1EFF3108072B6FEE700BF40F21040FD
:1052200009F53051C2F200000C234FF4E13280E85E
:105230001600C0E90344C0E90534C461FEF728FB49
:1052400020B1EFF3108072B6FEE700BF40F2D42029
:10525000A9F53441C2F2000041F6802200244FF447
:105260008043C0F2060280E81600C0E90343C0E9AB
:105270000544C0E90744FDF7B7F828B1EFF3108003
:1052800072B600BFFEE700BF40F28417C2F200070B
:1052900009F5C051384640F8141F4FF480710125BC
:1052A0004FF46022C0E90141062105730475C26113
:1052B0000161FCF741FA28B1EFF3108072B600BF2C
:1052C000FEE700BF0D20CDE90205002007F114051F
:1052D000049002A92846FCF765F928B1EFF3108085
:1052E00072B600BFFEE700BF0C20029002200390C0
:1052F00002A92846FCF756F920B1EFF3108072B6E8
:10530000FEE700BF082002900320039002A9284670
:10531000FCF748F920B1EFF3108072B6FEE700BF4A
:10532000092002900420039002A92846FCF73AF9CC
:1053300020B1EFF3108072B6FEE700BF0B200290A1
:105340000520039002A92846FCF72CF920B1EFF3C1
:10535000108072B6FEE700BF0C200290062003907A
:1053600002A92846FCF71EF920B1EFF3108072B6AF
:10537000FEE700BF40F28030002109F50052C2F282
:1053800000004FF47A733F260591CDE90311CDE972
:105390001C11C0E90023C0E90216C0E904118161B3
:1053A000FEF7E4F820B1EFF3108072B6FEE700BF1D
:1053B0004FF48050029040F28030C2F2000002A907
:1053C000FEF796F920B1EFF3108072B6FEE700BF4A
:1053D00040F28030C2F200001CA9FEF77BF818B141
:1053E000EFF3108072B6FEE740F2C8300021A9F555
:1053F0007842C2F200004FF6FF73CDE90211C0E916
:105400000021C0E902138161FEF7B0F820B1EFF38B
:10541000108072B6FEE700BF40F2C830C2F2000052
:1054200002A9FEF757F818B1EFF3108072B6FEE745
:1054300007F1080128460622FCF79CFA00204FF0ED
:10544000000BFBF70FFE48464FF480410122FCF7AA
:10545000BFFF0020FBF706FE0120FBF703FEFEF76F
:105460004BFD0020FBF7FEFD0020FBF709FE4BF291
:10547000D472C0F600026E203221FBF729FF40F201
:10548000C812C2F20002032000213223FBF7CEFF34
:1054900040F22C22C2F20002052014213223FBF735
:1054A000C5FF06200021FCF709F840F20C044BF67A
:1054B0000406C2F2000402AD4FF4FC68C0F6000618
:1054C0000FF2A0090FF2AC0A78603868013038603A
:1054D0004FF4FA70FCF7C4FC3889FFF767FA798952
:1054E00020600846FFF7E4FAB98960600846FFF7D4
:1054F00015FA2168A060084601F066F802462846C1
:1055000015A1FAF7B1FE002000212A463346CDE965
:10551000008BFBF76DFF606801F056F802462846E5
:105520004946FAF7A1FE002096212A463346CDE9E6
:10553000008BFBF75DFFA06801F046F802462846A5
:105540005146FAF791FE0020AA212A463346CDE9BA
:10555000008BFBF74DFFB8E754656D70416D623D00
:105560002564000054656D7057617465723D256453
:1055700000000000507265737572653D2564204B14
:10558000506100002DE9F0414F1E00EBC7010446B9
:10559000D1E9000115461E4637F006020DD02A4615
:1055A000334600F0C1FC7F1E04EBC703D3E90023A0
:1055B00000F03EFA37F00602F1D1022F25D0042F79
:1055C00013D0062F18BFBDE8F0812A46334600F0FD
:1055D000ABFCD4E90A2300F02BFA2A46334600F04C
:1055E000A3FCD4E9082300F023FA2A46334600F04E
:1055F0009BFCD4E9062300F01BFA2A46334600F050
:1056000093FCD4E9042300F013FA2A46334600F051
:105610008BFCD4E9022300F00BFA2A46334600F053
:1056200083FCD4E90023BDE8F04100F001BA00009A
:10563000002213461046014900F0B6BA0000F03FC0
:10564000012201F043B9002213461046114600F032
:10565000ABBA8A68002A02DC0022FBF77DB8521E32
:105660008A604A68C0B2531C4B60107070470000DB
:105670002DE9F04DC84A002490B0914205DA21F09E
:105680000043934201D805D120B110B0BDE8F04DE0
:10569000FFF7D6BFB1F5801F1BDA53EA000209D02D
:1056A000002911DA0120FAF7D3FE10B0BDE8F04D61
:1056B000FFF7C9BF0220FAF7CBFEFFF7B9FF10B022
:1056C00081F00041BDE8F08D6FF03504362201F025
:1056D000FDF804EB2152C1F31308B049A2F2FF33E5
:1056E000414401F4801282F07F6103EB225281F089
:1056F0004051009241EA08010022A94B00F01EFD32
:10570000044608F10200A74EC0F313000D467E4484
:10571000032867D2D6E90023204600F09FFB1ED164
:105720000098002802BFD6E9000110B0BDE8F08D56
:1057300000F0D0FB07460C469B4A9C4B00F0F4FB64
:1057400006460D469A4A9B4B3846214600F0ECFB34
:1057500010B032462B46BDE8F04D00F069B94FF06D
:105760005532954B2046294600F0DEFB0022934B34
:1057700000F0D8FC06460F4622462B461046194636
:1057800000F0D2FB32463B4600F0CEFB06460098C6
:105790000F46F0B100F09EFB80468A46824A834B5A
:1057A00000F0C2FB32463B4600F0BCFC22462B46D2
:1057B00000F0C4FC05460C467D4A7E4B40465146EF
:1057C00000F0B2FB10B02A462346BDE8F04D00F0D1
:1057D000B5BC0B4610B0324620462946BDE8F04D18
:1057E00000F0ACBC00224FF08043204600F020F9CE
:1057F00002460B462046294600F0D6F906460F46DB
:10580000009800F067FBCDE9040132463B461046A4
:10581000394600F089FB0C9069480C9A404401908D
:1058200009910B46104600F07FFB82460246654810
:105830008B46C8F151080B4608F5D7280321784458
:10584000FFF7A0FE52465B4600F06EFB0A905E48F2
:105850000D9152465B4604217844FFF793FE099B65
:105860000C9A00F061FB844601980D9B40EA080801
:1058700060460A9A00F0DCF883460891B8F1000F00
:105880004EDD4FF0FF322046294601F01FF8224638
:105890002B4600F049FB804600988A4660B3DDE95C
:1058A0000401414A414B00F03FFB099100905A46E8
:1058B00040465146089B00F0BBF832463B4600F09C
:1058C00033FB099B009A00F0B3F84246534600F0C0
:1058D00029FC22462B4600F031FC04460D46DDE94A
:1058E0000401334A334B00F01FFB10B022462B4615
:1058F000BDE8F04D00F022BC5A464046089B00F03F
:1059000097F832463B4600F00FFB4246534600F004
:1059100009FC10B022462B46BDE8F04D00F002BC59
:10592000009840B3DDE904011F4A204B00F0FCFA67
:1059300080468A465A4620462946089B00F0FEFBD0
:1059400032463B4600F0F0FA4246534600F0F6FB82
:1059500022462B4600F0F2FB04460D46DDE9040129
:10596000134A144B00F0E0FA10B022462B46BDE873
:10597000F04D00F0E3BB0B465A462046294600F0A6
:10598000DDFB32463B4600F0CFFA10B022462B46F4
:10599000BDE8F04D00F0C6BB0000F07F645F090079
:1059A0000000F03F7E120000763C7935EF39EA3D89
:1059B0000000E0FE422EE63F5555D53F0000E03F97
:1059C00086EBF9FF161100001411000021F00042CF
:1059D00001F00043A2F16052B2F5801F28BFD2F15E
:1059E0007F6C0BD95FEA001C43EAC20242EB5070A5
:1059F00018BF704728BF20F001007047B2F5801F24
:105A0000BCBF184670474FEA410C1CF5001F02D27C
:105A1000084600F024BF70B500F030FB000000899C
:105A2000FFF7F6BF4FF00040A0F580007047000080
:105A300010B591EA030F48BF83F0004300F186835D
:105A4000841A71EB030C05D2121943EB0C03001BF3
:105A500061EB0C014FEA1154A4EB135CDFF81CE17D
:105A60001EEA430F18BF9EEA445F00F0748021EAEB
:105A7000045123EA0E0343F48013DCF1200E32D3E9
:105A800022FA0CFE10EB0E0023FA0CFE41EB0E0185
:105A9000CCF1200E03FA0EFE10EB0E00CCF1200E1E
:105AA00051F10001B1F5801F32D201EB045112FA1D
:105AB0000EF2BDE8104058BF7047401C38BF5FEA87
:105AC000420218BF7047002814BF20F0010041F1C6
:105AD00000014FEA410313F5001F38BF7047A1F1E1
