:020000040800F2
:10000000305E0020B5020008519900082D810008DB
:100010004D990008FD20000805F4000800000000CC
:100020000000000000000000000000003DB00008DB
:10003000B931000800000000119A00082DB4000832
:10004000CF020008CF020008CF020008B9A30008C1
:10005000CF020008CF020008053A0008253A000840
:10006000313A00083D3A0008493A00085931000881
:10007000CF020008CF020008CF020008CF0200081C
:10008000CF020008CF020008CF020008CF0200080C
:10009000CF020008CF020008CF020008553A00083E
:1000A000CF020008CF020008CF020008CF020008EC
:1000B000CF020008CF020008CF020008CF020008DC
:1000C000CF020008CF020008CF020008CF020008CC
:1000D000CF020008CF020008CF020008CF020008BC
:1000E000113A0008CF020008CF020008CF02000832
:1000F000CF020008CF020008CF020008CF0200089C
:10010000CF020008CF020008CF020008CF0200088B
:10011000CF020008CF020008CF020008CF0200087B
:10012000CF020008CF020008CF020008CF0200086B
:1001300000F002F800F0AEF814A696E8000CB24405
:10014000B344DA4501D100F0A5F8BAE80F000FA6D4
:1001500096E83000A5EB040504EB0607AAEB0704BC
:10016000A7F101074FEA15154FEA3414A4F1010471
:10017000AC4201D300F08EF813F0010F18BFFB1A48
:1001800043F0010300F001F8DBE71847988902000B
:10019000B8890200103A24BF78C878C1FAD852074B
:1001A00024BF30C830C144BF04680C6070470000F1
:1001B000704700000023002400250026103A28BFC5
:1001C00078C1FBD8520728BF30C148BF0B607047C9
:1001D0006E2900F00982702900F05D83662916F00F
:1001E000BA82652916F0B782672916F0B4826129B0
:1001F00016F0B38203681B0A28BF41F08001692909
:1002000000F0B681642900F0B381752900F0B08157
:100210006F2900F0EB82782900F02983E92900F0AA
:100220008582E42900F08282F52900F07F82EF299F
:1002300000F0E882F82900F028830368DB0928BF72
:1002400041F08001632901F05F80732901F064802F
:10025000E32901F06F80F32901F0748000207047DA
:100260001FB59DE8030001F023FC01F065F90400CF
:100270000020002115F016F9401C606000200021CC
:1002800015F0FAF8E06001F065F81FBD10B501F057
:10029000CAF810BD01F022F91146FFF7E1FF0FF097
:1002A000EFFB01F0D9FB03B4FFF7F0FF03BC01F053
:1002B0007DFD00000948804709480047FEE7FEE74A
:1002C000FEE7FEE7FEE7FEE7FEE7FEE7FEE7FEE706
:1002D00004480549054A064B7047000045B500082B
:1002E0003101000830550020305E002030580020D9
:1002F000305800200FB4044910B503AA029800F04A
:10030000A5F910BC5DF814FBBC0000200FB41CB5AF
:10031000084B06AA7B4469460090059800F07DF9D9
:1003200004460020694600F08BF920461CBC5DF8AD
:1003300014FB000029030000032A40F2308010F073
:10034000030C00F0158011F8013BBCF1020F624470
:1003500098BF11F801CB00F8013B38BF11F8013B01
:10036000A2F1040298BF00F801CB38BF00F8013BAE
:1003700011F0030300F05E83083AC0F0088051F8E2
:10038000043B083A51F804CBA0E80810F5E7121D29
:100390005CBF51F8043B40F8043BAFF30080D20748
:1003A00024BF11F8013B11F801CB48BF11F8012B14
:1003B00024BF00F8013B00F801CB48BF00F8012B37
:1003C00070474FF0000200B5134694469646203918
:1003D00022BFA0E80C50A0E80C50B1F12001BFF4FE
:1003E000F7AF090728BFA0E80C5048BF0CC05DF864
:1003F00004EB890028BF40F8042B08BF704748BFB2
:1004000020F8022B11F0804F18BF00F8012B704725
:100410004FF0013C50F8042B51F8043B9A4221D193
:10042000A2EB0C03934313EACC1317D150F8042B1F
:1004300051F8043B9A4215D1A2EB0C03934313EA03
:10044000CC130BD150F8042B51F8043B9A4209D13C
:10045000A2EB0C03934313EACC13DBD04FF0000064
:10046000704700BFD01A01BAB1FA81F101F018014A
:1004700022FA01F0CB40DBB2C0B2C01AC1F12001B8
:100480002CFA01F3D11A914311EAC311E6D1704756
:1004900070477047704710B500F0FEFA006810BD55
:1004A00010B5044600F0F8FA046010BD70B50446BB
:1004B00085690068C10601D5302600E02026C00706
:1004C00007D070BDD4E9012130469047206A401C16
:1004D00020626D1EF6D570BD70B504468569007842
:1004E000C00707D170BDD4E9012120209047206AC0
:1004F000401C20626D1EF6D570BD09684A0501D505
:1005000040B27047C905FCD500B2704709684A057A
:1005100001D5C0B27047C905FCD580B2704770B52F
:100520000C460546012A05D02878800600D5EA69E0
:10053000002302E0012305E05B1C934202D2E05C51
:100540000028F9D1A869E618C01AA861286A1844D9
:1005500028622846FFF7AAFF04E0D5E9012114F834
:10056000010B9047B442F8D32846FFF7B5FF70BDA2
:100570002DE9F0410646002410687529314616A57C
:1005800010D0FFF7BAFF002802DA404213A507E0B7
:1005900031688A0701D512A502E0490704D511A5E3
:1005A000012401E0FFF7B2FF00210A2206F124072F
:1005B00009E0B0FBF2FCB0FBF2F302FB1C003030B0
:1005C00078541846491C0028F3D123462A46304661
:1005D000BDE8F04100F0A9BA000000002D000000C5
:1005E0002B0000002000000011680268006A53051B
:1005F00001D508700AE0D30501D5088006E013068E
:1006000003D5C217C1E9000200E00860012070476D
:1006100001694A1C02610878704700B58FB0CDE9C6
:1006200001310021059105497944CDE903101146B6
:10063000684600F03BF90FB000BD0000E5FFFFFF8A
:100640000A6802F8010B0A6070470000074B70B59A
:100650000D467B44FFF7E1FF0446284600F076FE96
:1006600010B14FF0FF3070BD204670BDAB4A0100A5
:100670002DE9FF5F15468A460446DFF8AC80F84452
:100680000027D8E900103E46CDE9001010E03AF806
:1006900016106A4602A800F0F9FE411C07D0217826
:1006A000890603D5E269391891420DD80744761CB2
:1006B0002078800602D5E069B84205DDAE42E6DB6F
:1006C0003AF816000028E2D1A069C01BA0612046BC
:1006D000FFF7ECFED8E90010CDE90010002017E08C
:1006E0003AF818106A4602A800F0D0FEB0F1FF3FB9
:1006F00081460BD000250DF1080B05E0D4E901215E
:100700001BF8050090476D1C4D45F7D308F101001B
:10071000B0428046E4DB206A384420622046FFF77E
:10072000DBFEBDE8FF9F0000066201002DE9F041FD
:100730008046D21D22F007020025D2E90002F529E9
:1007400015A614D0011E72F1000106DA0023D0EBC9
:10075000030063EB020211A608E0D8F800108B0733
:1007600001D50FA602E0490701D50EA601251146C5
:10077000002408F1240704E000F092F930323A55E1
:10078000641C50EA0102F7D12B463246214640460E
:10079000BDE8F04100F0C9B9000000002D000000E4
:1007A0002B0000002000000030B4002100F12404E0
:1007B00008E002F00705D208303542EA4372DB0850
:1007C0006554491C52EA0305F3D10468002310A2C2
:1007D000250708D504F020040C4304D0C469012384
:1007E0000CA2641EC46130BC00F09FB910B5044671
:1007F00021461068FFF78AFE02462046BDE81040F9
:100800000023D1E7D21D22F00701D1E90023CBE775
:100810000000000030000000F0B40D46018809051A
:1008200002D5214C7C4402E01F4C7C440E34002154
:1008300000F1240608E002F00F071209E75D42EA22
:1008400003721B097754491C52EA0307F3D102785B
:100850000023120704D5702D06D009B102231134EC
:100860002246F0BC00F061B901231034F8E770B5FE
:1008700004460D4621461068FFF748FE0246294609
:100880002046BDE870400023C6E7D21D22F00703D2
:10089000D3E90023C0E70368126843F02003036034
:1008A0000823C3610023B7E7686001002DE9F05F0A
:1008B000894604464FF0000ADFF874B1FB44C0F8E3
:1008C00020A02046E1688847002874D0252806D05B
:1008D000D4E901219047206A401C2062F1E70026FC
:1008E0005F462046E16888472028054607DB312D12
:1008F00005D2781910F8200C08B10643F1E7B007CB
:1009000001D526F00406C4F81CA00027C4F818A0DE
:100910002A2D09D0284614F0ECFB38B304EB8708E5
:10092000303DC8F8185019E059F8041B204604EB74
:1009300087029161E1688847012F054618D1E06977
:10094000002820DA26F020061DE0D8F8180000EB79
:10095000800005EB40003038C8F818002046E168F8
:100960008847054614F0C5FB0028EED1012F0AD0B8
:100970002E2D08D12046E16888477F1C0546022FAE
:1009800046F02006C4DBA069002803DA404246F0A6
:100990000106A061F00701D026F010066C2D0BD0E7
:1009A000682D09D04C2D39D06A2D35D0742D35D015
:1009B0007A2D33D016E038E0E1682F46204688478C
:1009C000B842054609D16C2F26D04FF48060E1680B
:1009D000064320468847054604E06C2F1AD04FF4A2
:1009E000807006430DB3A5F14100192802D82035C7
:1009F00046F400664A462946204626604E46FFF7E2
:100A0000E7FB80B101280BD0F61D26F0070000F1AE
:100A1000080956E74020E4E78020D8E70020D6E721
:100A200006F104094DE7284652E7206ABDE8F09F29
:100A3000F85F010010B5203AC0F00B80B1E8185003
:100A4000A0E81850B1E81850A0E81850203ABFF4B8
:100A5000F5AF5FEA027C24BFB1E81850A0E8185057
:100A600044BF18C918C0BDE810405FEA827C24BFAB
:100A700051F8043B40F8043B08BF7047D20728BF39
:100A800031F8023B48BF11F8012B28BF20F8023B88
:100A900048BF00F8012B70470048704764010020F0
:100AA00030B5B0F10A0271F100034FEA900E4EEA40
:100AB000817EB0EB0E0061EB91014FEA101E4EEA11
:100AC000017E10EB0E0041EB11114FEA102E4EEAA1
:100AD000016E10EB0E0041EB11214FEA104E4EEA71
:100AE000014E10EB0E0041EB1141401841F10001A5
:100AF0004FEAD00040EA41704FEAD1014FEA810449
:100B000044EA907410EB800544EB01046D1944EB4A
:100B10000404521BA3414FF0000348BF0A3200D522
:100B200030BD401C41F1000130BD2DE9F0470D46BC
:100B300099469246044600F124080168880604D5C7
:100B4000E06921F01001216000E00120A84201DDF0
:100B5000471B00E00027A1697A1902EB0900081A77
:100B6000A0612078C00602D42046FFF79FFC002633
:100B700008E0D4E901211AF806009047206A401CD9
:100B8000761C20624E45F4DB2078C0060AD520464C
:100B9000FFF78CFC06E0D4E9012130209047206A61
:100BA000401C2062381EA7F10107F4DC07E0D4E9FD
:100BB000012118F805009047206A401C2062281E79
:100BC000A5F10105F3DC2046FFF786FC207800063E
:100BD00002D50220BDE8F0870120FBE72DE9FF4F99
:100BE0000C461E464FF0FF378BB0D2E90001DDF80E
:100BF00060800A908A46C1F30A5505B93D46002136
:100C000008464FF00000BAF1000F00F4400005DA8A
:100C100000EB80004FF4400101EA50004FEA905988
:100C2000B9F1010F00DDB9460A9850EA4A000ED02A
:100C300044F61050A5F2FF3545432F14B8F1000FCC
:100C40001ED07542291E1EDDC9F100021CE0B8F15C
:100C5000010F4FF0000001D0302103E0F24305E026
:100C60002154401CB042FBDB3046002200212154BD
:100C70000B99C1F80880C1E900200FB0BDE8F08FE2
:100C8000BD1B6D1CDEE74A4600DA694206A800F08B
:100C9000BFFC06AB93E8070003AB83E807005046B0
:100CA0000A9913F0E3FD8DE80700A0F500501F3806
:100CB00000900398002D0ADD42F21F014A460844C5
:100CC000002303A90390684614F04CF809E0A0F54E
:100CD00000504A461F38002303A90390684614F0C9
:100CE00056F88DE807000004000C03D04FF0FF30E9
:100CF000410800E01046B8F1000F03D00022009236
:100D000015461EE0751E05D4FFF7CAFE3032625547
:100D10006D1EF9D5B3460122084302D000227F1C84
:100D200004E02078302801D100227F1E002A099794
:100D300084D01DE0112D07DAFFF7B2FE3032625584
:100D40006D1C50EA0102F5D1084302D00098C8B1E9
:100D50000EE00021681E05E0235C625C63542254AF
:100D6000401E491C8142F7DBAB46A81B401E099080
:100D7000002004F80B000B98099AC0F80880C0E91D
:100D8000002B7AE711264FF0000857E72DE9F04FC6
:100D900088460446D21D22F0070191B0D1E9000136
:100DA000CDE90A0114F02AF902460B98C00F01D0D0
:100DB0002D2007E02068810701D52B2002E02021AB
:100DC00001EAC000032A099001D0072A05DB034687
:100DD0004146204600F0DCFB0BE12078800601D57F
:100DE000E06900E00620B8F1650F814606D0B8F151
:100DF000660F18D0B8F1670F70D131E00020B9F15B
:100E0000110F009001DB112301E009F101030AAA8F
:100E100001A90CA8FFF7E2FEDDE90C70002609F13C
:100E20000105834647E001204B4600904FF0004704
:100E30000AAA01A90CA8FFF7D1FEDDE90DB00C99B3
:100E40005D46002610B909F101000D18B9EB050047
:100E500003D4C0F1FF3609F10105A5EB09002BE031
:100E6000B9F1010F01DA4FF001090020B9F1110FBA
:100E70000090484601DD112300E003460AAA01A9BB
:100E80000CA8FFF7ABFEDDE90C704D46002683464B
:100E9000207800070AD4AB4500DA5D4601A8012D91
:100EA00004DD411911F8011C302907D04F4502DA41
:100EB00017F1040F04DA012082460FE06D1EEEE701
:100EC000002F02DCED1B3E4403E0781CA84200DD4D
:100ED0007D1CB81B00F1010A4FF000472078000785
:100EE00003D4AA4501DB4FF0FF3A0021B7F1004FD0
:100EF0000DF143088DF8431024D002202B23002F3E
:100F000001DA7F422D230A21021EA0F1010000DC3C
:100F10005FB197FBF1FC97FBF1F201FB1C7C1746DC
:100F20000CF1300C08F801CDEEE7A8F101000370D8
:100F30002188090501D5452100E06521A0F10108BE
:100F400000F8011C09980FA9A1EB0807FF1D00B1CB
:100F50000120411901EBEA70A1693844081A401ECA
:100F6000A0612078C00602D42046FFF79FFA0998B6
:100F700028B1D4E901219047206A401C20622078E2
:100F8000C00622D52046FFF791FA1EE0002E04DBB2
:100F9000B34502DD01A8805D00E03020D4E90121E5
:100FA0009047206A401C2062761CAAF101005FEA8B
:100FB000000A0AD100F0C0FAC0680168405CD4E9B8
:100FC00001219047206A401C2062281EA5F10105DE
:100FD000DCDC07E0D4E9012118F8010B9047206A16
:100FE000401C2062381EA7F10107F3DC2046FFF702
:100FF00073FA032011B041E62DE9F04F04460D4687
:10100000D21D22F0070089B0D0E900974846394642
:1010100013F0F4FF0246F80F01D02D2307E02068FB
:10102000810701D52B2302E0202101EAC0038DF8BE
:1010300020300BB1012000E00020032A824601D0BD
:10104000072A04DB2946204600F0A2FA3FE1207877
:10105000800601D40D2500E0E569C7F30A560D2D81
:1010600049DA00214FEA175B08464FF00000002FD5
:1010700000F4400007DA00EB80004FF4400100EB81
:10108000D07001EA60008115012901DD4FF0FF31C8
:1010900000224FEA850CBCF1180F06D31346ACF1C1
:1010A00018004FF08052C24003E04FF4801323FA3F
:1010B0000CF30CF10C0CBCF1200F04D3ACF1200CA0
:1010C00009FA0CF001E007FA0CF000294FF0004893
:1010D00001DD18B90FE00ED140450CD319EB020920
:1010E0005F4121B9404502D19F4329EA0209BBEB88
:1010F000175F00D0761C2088000502D57B48784415
:1011000002E07A487844193808AA302302F80A30F5
:10111000037C0AF10101002E0AF1020A53546A46C7
:1011200002DC4FF0300101E04FF031014FF00108D7
:101130008DF8001002D0A6F2FF3603E059EA47010D
:1011400000D06B4E002D02DC2178090704D54FF04A
:1011500002082E218DF80110C44600210BE0C7F3D0
:1011600003433F01C35C491C6D1E02F8083005298A
:1011700008F1010801DA002DF1DC00210CE000EBA0
:101180001973491C1B786D1E082902F808304FEAB4
:10119000091908F1010801DA002DF0DC21688B063D
:1011A00002D516E0A8F10108E04505DD02EB0803D1
:1011B00013F8013C302BF5D0B8F1000F09DD02EB3C
:1011C000080313F8013C2E2B03D1090701D4A8F121
:1011D0000108002D05DD3E2102F808106D1E08F102
:1011E0000108407C002E02F8080008F1010804DA2A
:1011F0002D20764202F8080002E02B2002F80800B9
:101200000A214FF47A70864208F101080BDB96FB45
:10121000F0F3303302F8083096FBF0F308F10108E0
:1012200000FB136601E0642E0CDB642096FBF0F3F8
:10123000303302F8083096FBF0F308F1010800FBA8
:10124000136601E00A2E06DB96FBF1F0303002F85F
:10125000080008F1010896FBF1F001FB1060303046
:1012600002F80800A16908F1010808EB050202EB89
:101270000A00081AA0612078C00602D42046FFF7B1
:1012800015F9216A08AE01EB0A00206204E0D4E9F6
:10129000012116F8010B9047BAF1010AF7D2207824
:1012A000C00602D52046FFF701F96E4609E016F8A0
:1012B000010B3E280FD0D4E901219047206A401C41
:1012C0002062B8F10108F2D22046FFF705F909B013
:1012D0000320BDE8F08F206A2844206203E0D4E9AF
:1012E0000121302090476D1EEBD3F8E7E95701004C
:1012F00002FCFFFF10B5436913B1AFF3008001E0BA
:10130000FFF70DF9012010BD127800F124010A70D9
:1013100000224A700122EDE711684FF0FF32E9E741
:1013200010B5436913B1AFF3008001E0FFF7A0F9F6
:10133000012010BD128800F1240182840022C284A1
:101340000122EDE711684FF0FF32E9E7007B00F082
:101350008000704710B542485421FFF732F84148E9
:101360005421FFF72EF840485421FFF72AF83F494F
:101370003B483C4A3F4B08603D490A603A49196086
:10138000531C0365481C1065012008653B48344A1E
:1013900039A1784400F0C2FA20B9384878440A38B4
:1013A00000F063FB37482F4A35A1784400F0B6FAC5
:1013B00020B9344878440A3800F057FB32482A4AAA
:1013C0002FA1784400F0AAFA20B92F4878440A38AF
:1013D00000F04BFB40232248DC000021224600F0B5
:1013E0007AFA20B125487844543800F03EFB1D4875
:1013F00022464023002100F06EFA20B121487844B3
:10140000543800F032FB184822461023002100F027
:1014100062FA002806D01C487844BDE810405638CF
:1014200000F023BB10BD104870B5006D20F0010422
:101430000B4800F0EBFA0B4800F0E8FA0A4800F01D
:10144000E5FA09E0206D20F00105204600F0DEFA03
:10145000204600F075F82C46002CF3D170BD00003A
:1014600068000020BC0000201001002000000020C7
:101470000400002008000020720000006AA401009F
:101480007700000059A4010032A401002DE9F041C9
:1014900016460C46054600F047F8036893F801012C
:1014A000012807D0FF2C12D8185D80B101202C70C4
:1014B000BDE8F081D3F807013246214603F2071355
:1014C000C7182846BC46BDE8F041002360474FF0EE
:1014D000FF30EDE700487047640100207546FFF7D4
:1014E000F9FFAE4605006946534620F007008546E1
:1014F00018B020B5FEF7ECFEBDE820404FF0000626
:101500004FF000074FF000084FF0000BAC46ACE87E
:10151000C009ACE8C009ACE8C009ACE8C00921F0DA
:1015200007018D467047000010B500F005F8001D5A
:1015300010BD00BF713F01000048704784010020CA
:1015400070B50446051F00F097FA0068002C14BF20
:10155000446870BD002C18BFAC423CBF2046646894
:10156000F8D301680A18AA4218BF456003D12A6857
:1015700005461144016028684119A1421CBF6C60F6
:1015800070BD6168696021680844286070BD000012
:101590002DE9F0411F46044603260168072A01F49D
:1015A000006004DB08B116A505E016A503E008B14C
:1015B00015A500E015A521F010002060A069C01E4F
:1015C000A0610FB1401EA0612046FEF76FFF4FB132
:1015D000D4E9012138469047206A401C2062C01C93
:1015E000206206E0206AFAE7D4E9012115F8010B30
:1015F0009047761EF8D22046FEF76EFFBDE8F081D8
:101600004E414E006E616E00494E4600696E6600A6
:101610002DE9F047814616468AB0354878440DC812
:101620008DE80D0032487844801C03AC0DC884E876
:101630000D0041F69B300844372190FBF1F290FBFE
:10164000F1F5A5F1800501FB12041B3C02D56442B3
:10165000012000E00020DFF898A080460027FA442F
:10166000AAF1BE0A0EE0E0070AD03246684607EB50
:10167000470101230AEB810113F089FB8DE8070084
:1016800064107F1C002CEED1194F7F44AE3F19E04F
:10169000E80715D007EB04100DF1180A90E80E00CA
:1016A0008AE80E00C068F04201D1981908903246CD
:1016B000012306A903A813F06AFB03AB83E8070024
:1016C0006D10641C002DE3D14FF0010332466946D2
:1016D000B8F1000F03A802D013F044FB01E013F0AF
:1016E00056FBC9E90001C9F808200AB0BDE8F08737
:1016F0005C5301002DE9F05F054617460C46C868AB
:1017000020F4201040F48000C860800602D508460E
:1017100000F00BFBE06841F282014FF0FF3A01401C
:10172000022903D0204600F09DFAB9E000F42041E0
:10173000B1F5004F0FD1C00306D56168E06A884259
:1017400000D80846606006E02069E0626060606979
:101750000DF00EFFA061A0680022EEB200280DDAA5
:10176000E1688B050AD4C043A06041F49030226048
:10177000E0606068411C61600670AAE0E068914624
:10178000226040F40050E060206978BB60690DF091
:1017900013FF04F124054FF00108A8B1A08910F44B
:1017A000407F08D0E06900F0B2F9206118B1E0682C
:1017B00040F4006017E0C4F81C802561E06820F464
:1017C000407040F480600EE0E06900F0A0F900286D
:1017D0002061F0D0E06840F4006010F4407FE060E9
:1017E00002D140F48070E06020696060E0682569A3
:1017F0006FF0010BC1051ED56168E06A884200D810
:101800000846411B04D02246284600F035FAE8BBC2
:101810001FB1E562C4E9015959E0681CE0626060EB
:10182000E069401EA060E06840F48030E06030462F
:101830002E70BDE8F09F17B100F480320AE06068B6
:10184000411C61600670E0680A2E40F48030E06060
:1018500006D00022E16A6068814203D90B4602E0AB
:101860000122F7E70346B4F80CC05B1B5FEA4C5C4F
:1018700004D4D4F81CC09C4500DD02B3814200D8DA
:101880000146002BA1EB0008E56200E008E0C4E996
:10189000015907DD22461946284600F0EDF908B146
:1018A0005046C6E7B8F1000F09D0A169E56265604E
:1018B000A1EB0800A061E06840F01000E06047B1D3
:1018C0006168A069E562491B08446560A0615846EB
:1018D000AFE73046ADE770B5C468A50713D0650221
:1018E00011D4B2F5807F09D0B2F5007F06D0B2F5F1
:1018F000806F08D1012300F1240106E05D1E6FF026
:101900007F46B54201D3012070BD0161C3614160D2
:1019100024F470611143C160002070BD2DE9F041D5
:101920000C461646070047D0104600F06FF82078A6
:10193000611C61280AD0722802D077283CD102E0CD
:101940000125002405E00225042402E0082448F2D1
:10195000020511F8010B2B2806D0622809D011F8D6
:10196000010C74280AD00BE045F0030544F0020492
:10197000EFE745F0040544F00104EAE744F0100401
:10198000384621460DF03CFE411C15D00021316146
:1019900071604FF40071F560F1617061200704D54A
:1019A00030460222002100F0E1F8306D40F00100E5
:1019B00030653046BDE8F0810020FBE72DE9F041BD
:1019C0000D460646104C206DC10704D0410804D0D6
:1019D00020F00104F7E722460EE0542000F097F8CB
:1019E00007000ED0206D47F0010108435421206507
:1019F0003846FEF7E6FC3A4629463046BDE8F04157
:101A00008CE70020D6E70000680000202DE9F047B1
:101A100004464FF0FF380026C568D4E90497A807AC
:101A200018D0204600F05EF938460DF07BFD002806
:101A300000DA4646280502D54846FFF781FD4C21CD
:101A40002046FEF7BEFC206D20F0010020653046E8
:101A5000BDE8F0874046FBE710B50446AFF30080D1
:101A60002046BDE81040FEF71EBC10B500F084F91A
:101A7000BDE8104000F07AB9004870476C010020C2
:101A8000704770477047704738B504460A460020D3
:101A90006946AFF30080002808BF38BD02460099B0
:101AA000204600F08FF9012038BD012000F0DEB99A
:101AB000F8B5AFF30080054600200C460C2000BFAF
:101AC0000646A819A0420DD9324669460020AFF358
:101AD0000080070008BF00F0C9F90098A04218BFB5
:101AE0000546C419FFF7C8FF05600746F01D20F042
:101AF00007004619284600F05FF9B44208BFF8BD58
:101B0000A21B31463868BDE8F84000F05BB970B5FB
:101B10000646FFF7B1FF056806F10B0020F0070449
:101B2000B4429CBF002070BD2B466A68BAB11068F1
:101B3000A04210D304F1080188423CBF50685860AD
:101B400007D35168101941601168091B0160586082
:101B50001460101D70BD13465268002AE7D121465B
:101B60002846FFF791FF0028DED170BD2DE9F04136
:101B7000044616460D464769007B80072ED038463E
:101B80000DF01AFD50BB3EB3012E02D0022E25D11E
:101B900004E0204600F030F905441DE038460DF021
:101BA000E7FCE168002841F01001E16005DA204619
:101BB00000F058F80120BDE8F081C9030BD5626838
:101BC000E16A914200D81146A26911442269891A3A
:101BD000814200DD08460544002D01DA0220EAE7D3
:101BE000E16A6068E268814206D29103E06203D54F
:101BF00022F4003141F01002A6690027AE4213DC46
:101C0000E16A814201D90B4600E0034603EB060C72
:101C10002369ACEB030CAC4506DD814201D98C464F
:101C200000E084469C4505D1A760276042F0200073
:101C3000A5620DE0AD1BE669AE1B8142A66000D92E
:101C40000846C01A281A20605819606022F0200047
:101C500003490840E060002084F84870ABE70000CA
:101C6000BFCFD7FFC16821F4001141F08001C160EE
:101C700000218160016070472DE9F74F15460C4641
:101C80004FF0FF3B3848D768D2F814A0074209D07C
:101C90005046A9690DF0F6FC002819DB3248C04314
:101CA0000740EF604FF000496FF000484C4501D30A
:101CB000464600E0264600993B46504632460DF027
:101CC0000BFDA96920F00042B21A1144A96128B1A4
:101CD0002846FFF7C7FF5846BDE8FE8FA41BE5D195
:101CE0000020F9E770B504460569C06A616888425A
:101CF00000D80846E16821F42011E160C90312D53B
:101D0000A84208D02246411B2846FFF7B5FF10B174
:101D10004FF0FF3070BD0020E562C4E90150E0687B
:101D200020F48030E060002070BD10B50446C0682B
:101D300020F02000E060A16AA06988420DD0204612
:101D4000FFF7D0FFE06820F4405040F01000E06062
:101D5000A06AA0612069E062606044F24001E0682E
:101D60008843E06010BD000010000200002801D090
:101D700000F01CB87047000010B5014602A000F04A
:101D80005CF8012010BD00005349475254524544AD
:101D90003A2052656469726563743A2063616E2704
:101DA00074206F70656E3A20000000000149182011
:101DB000ABBEFEE7260002000021016041607047D3
:101DC0000C207047034640688C46002818BF8842A4
:101DD0003CBF03464068F8D318681844884207D0CF
:101DE0000CF1030020F00700001D411A521A0146B1
:101DF000081D0A60FFF7A4BB10B50146C268900732
:101E000003D0900607D5886A0AE0FEF745FE012157
:101E10000160881E10BD8B69486818440B69C01AA0
:101E200091F848301BB191F84910401A10BD1103C8
:101E3000FCD50028FADD401E10BD70B505460C46E5
:101E40000A2000E06D1C00F018F835B12878002851
:101E5000F8D102E0641C00F010F814B120780028DA
:101E6000F8D1BDE870400A2000F007B810B500F0C6
:101E70000DF8BDE81040FFF779BF08B569468DF849
:101E800000000320ABBE08BD7047000010B501285C
:101E900005D0002103A0FFF7D0FF012010BD09A14C
:101EA000F8E7000053494752544D454D3A204F75CD
:101EB00074206F662068656170206D656D6F727942
:101EC000000000003A2048656170206D656D6F72FA
:101ED0007920636F727275707465640080B584B028
:101EE000029000200190029800688068C00770B3DB
:101EF000FFE702980168886820F00100886003F01D
:101F00000FF90190FFE7029800688068C007E8B108
:101F1000FFE703F005F90199401A032815D3FFE7FD
:101F2000029800688068C00770B1FFE70299886A6C
:101F300040F0100088620299C86A40F00100C8624F
:101F400001208DF80F0006E0FFE7DCE7FFE7002047
:101F50008DF80F00FFE79DF80F0004B080BD000072
:101F600080B582B001900198406A00900098806A24
:101F700010F0500F28D1FFE70099886A40F40070F4
:101F8000886200980068806800F46020B0F5602FD7
:101F900016D1FFE70098007B90B9FFE70099886AA7
:101FA00020F4807088620098806AC004002806D4FB
:101FB000FFE70099886A40F001008862FFE7FFE7C9
:101FC000009801F02FFE05E00098006A016B01986F
:101FD0008847FFE702B080BD80B582B001900198CC
:101FE000406A00900099886A40F040008862009939
:101FF000C86A40F00400C862009801F01BFE02B0FD
:1020000080BD000080B582B001900198406A0090C8
:10201000009801F00BFE02B080BD000080B584B0D6
:102020000290002001900090029800688068C0072C
:10203000002849D1FFE702980168886840F0010054
:10204000886040F22800C2F2000000684DF683610B
:10205000C4F21B31A0FB0110800C0090FFE7009838
:1020600020B1FFE7009801380090F8E703F058F836
:102070000190FFE7029800688068C00718BBFFE77F
:1020800003F04EF80199401A03281BD3FFE702988A
:1020900000688068C007A0B9FFE70299886A40F02D
:1020A000100088620299C86A40F00100C862FFE728
:1020B0000299002081F82400FFE701208DF80F002D
:1020C00006E0FFE7D6E7FFE700208DF80F00FFE707
:1020D0009DF80F0004B080BD80B582B08DF8070078
:1020E0009DF8072040F60000C4F20100042102F030
:1020F000FFFF9DF8070002B080BD0000FFE7FEE78C
:1021000080B5BEB069464FF6FF70086069200A21AD
:10211000D622E82301F0B0F9012001F04FF8FFE7E3
:1021200069464FF6FF7048604FF40470086048F24B
:102130001E22C0F602024BF6F073C0F601036920BE
:102140000F2101F09BFA322002F058FCFFE740F625
:102150000000C4F20100082102F0B2FF0028DFD025
:10216000FFE74FF4FA6002F049FC45F26441C2F225
:1021700000010020087001F021F8FFE769464FF6E2
:10218000FF703A900860692035900A21D622E82332
:1021900001F072F935983A9943F24423C2F20003F0
:1021A000002234921A7043F24223C2F200031A70E2
:1021B00043F24323C2F200031A706A4651604FF49F
:1021C00004713791116048F63212C0F602024BF6E4
:1021D000F073C0F6010339930F2101F04FFADDF8D7
:1021E000E8C03799399B35986A46C2F804C0116037
:1021F00047F6C072C0F60202282101F03FFADDF86E
:10220000E8C03799399B35986A46C2F804C0116016
:1022100048F2D142C0F60202412101F02FFA349A6D
:10222000DDF8E8C03799399B359845F2644EC2F223
:10223000000E8EF800206A46C2F804C0116047F60E
:102240008362C0F602025A21389101F017FA43F274
:10225000F801C2F200013B91087040F20C00C2F29A
:102260000000027843F2AC00C2F20000369048F25F
:102270002B51C0F60201FEF749F8369ADDF8E8C0A6
:102280003899399B3B980078EE46CEF804C04FF45D
:10229000784CCEF800C001F0F1F9379A3899399BA3
:1022A000DDF8E8E03B9800781630EC46CCF804E026
:1022B000CCF8002048F2E972C0F6020201F0DEF923
:1022C0003B990870FFE745F26440C2F200000078D5
:1022D00003281CD1FFE740F20C00C2F20000007896
:1022E0001D2814DCFFE745F26441C2F20001002022
:1022F000087043F2FC11C2F200010120087040F2A4
:102300000C01C2F20001087801300870FFE745F2C5
:102310006440C2F20000007804281CD1FFE740F2BC
:102320000C00C2F200000078032814DBFFE745F23E
:102330006441C2F200010020087043F2FC11C2F2B5
:1023400000010120087040F20C01C2F2000108787F
:1023500001380870FFE743F2FC10C2F20000007879
:10236000012863D1FFE743F2FC11C2F20001002013
:10237000087069464FF6FF70329048604FF4047061
:102380002F90086047F68362C0F602024BF6F073A6
:10239000C0F60103319369205A21309101F06EF9A2
:1023A000329A3099034643F2F800C2F200003390AB
:1023B000037000786B461A6016220E2301F05CF859
:1023C00040F20C00C2F20000027843F2AC00C2F20C
:1023D00000002E9048F22B51C0F60201FDF796FF47
:1023E0002E9ADDF8C8C03099319B33980078EE46BC
:1023F000CEF804C04FF4784CCEF800C001F03EF99E
:102400002F9A3099319BDDF8C8E033980078163068
:10241000EC46CCF804E0CCF8002048F2E972C0F6B3
:10242000020201F02BF933990870FFE745F264408E
:10243000C2F200000078012807D1FFE745F26441AD
:10244000C2F200010020087098E6FFE745F2644000
:10245000C2F20000007802287FF435AFFFE769463A
:102460004FF6FF70086069200A21D622E82301F0A8
:1024700003F8632007F0A4FA01202C900CF0C4FFAD
:102480002C9800F09BFE40F20C00C2F20000007895
:102490004FF41671484340F20E01C2F20001088069
:1024A00043F20C10C2F2000078212D9100F03EFEA4
:1024B0002D9943F28410C2F2000000F037FE45F27D
:1024C0005841C2F200010020086045F25441C2F2B6
:1024D0000001086045F2A411C2F20001086045F253
:1024E000A011C2F200010860FFE740F20E00C2F244
:1024F00000000088002800F05D81FFE700203D908B
:1025000043F2FC01C2F2000108600A208DF8F300DA
:1025100045F26440C2F20000007801281ED1FFE7B6
:1025200045F26441C2F2000100202B900870694618
:102530004FF6FF70086069200A21D622E82300F0D8
:102540009BFF2B9807F03CFA2B980CF05DFF0120C5
:1025500000F034FE2B98FFF7BFFD0FE6FFE79DF874
:10256000F300D8B1FFE79DF8F30001388DF8F300D0
:1025700040F20E01C2F20001088801380880642090
:1025800002F03CFA40F2C410C2F2000008F02CF84D
:1025900001463D9813F016FD3D90E0E73D9800217F
:1025A000C4F2201113F0D0FD43F2FC01C2F200018D
:1025B0002A91086040F20E00C2F2000028900188C3
:1025C00047F6F240C0F60200FDF794FE2898008816
:1025D00043F60721C0F26D01A0FB011249F69A11E2
:1025E000C1F69911A0FB011044F24541C0F24441EB
:1025F000A0FB0131C1EB0111A0EB810343F2AC0060
:10260000C2F20000299047F6DC61C0F60201FDF736
:102610007DFE299A69464FF6FF7048604FF40470BA
:1026200008604EF2A023C0F601038C20502101F077
:1026300025F843F2F801C2F20001087040F2C4101C
:10264000C2F2000008F046F8014640F22C00C2F247
:1026500000000160006813F089FC02460B4647F653
:102660002850C0F60200FDF745FE2A98006813F0D6
:102670007DFC02460B4647F61750C0F60200FDF7F8
:1026800039FE2A9800680DF081F800B3FFE747F69D
:102690003B50C0F60200FDF72DFE69464FF6FF7075
:1026A00048604FF40470086048F64712C0F6020212
:1026B0004BF61003C0F6010369208C2100F0DEFF09
:1026C00045F2B411C2F200010120087072E040F23C
:1026D0002C00C2F2000000680DF006F900B3FFE71D
:1026E00047F63B50C0F60200FDF704FE69464FF680
:1026F000FF7048604FF40470086048F64712C0F657
:1027000002024BF61003C0F6010369208C2100F091
:10271000B5FF45F2B411C2F200010220087049E091
:1027200043F2FC00C2F20000006843F20811C2F25A
:102730000001096813F0E7FCB8B9FFE70120FFF7D3
:10274000CBFC69464FF6FF7048604FF47840086054
:1027500048F2EA52C0F602024BF61003C0F601033B
:102760006920782100F08AFF16E00020FFF7B4FC12
:1027700069464FF6FF7048604FF47840086047F6AE
:102780007452C0F602024BF6F073C0F601036920E2
:10279000782100F073FFFFE70A208DF8F30040F284
:1027A0000E00C2F200000088B0F5167F01D1FFE7ED
:1027B00000E09AE645F2B410C2F200000078012869
:1027C00040F0B880FFE769464FF6FF7048604FF46D
:1027D0007840086048F62202C0F602024BF6100369
:1027E000C0F601036920BE2100F048FFFFE7012089
:1027F000FFF772FC69464FF6FF70249048604FF473
:102800007840086048F20D02C0F602024BF6100351
:10281000C0F60103692026907821259100F02EFF53
:102820004FF4FA70279002F0E9F80020FFF754FC0B
:10283000249A259926986B465A604FF404721A60C0
:1028400047F66A52C0F602024BF6F073C0F6010377
:1028500000F014FF279802F0D1F8FFE745F264403A
:10286000C2F2000000780128C1D1FFE745F2B4119F
:10287000C2F20001002023900870FFF72DFC69468A
:102880004FF6FF701F9048604FF40470209008606E
:1028900047F67652C0F602024CF64843C0F60103F2
:1028A000692022900F2100F0E9FE1F9A20986946C6
:1028B0004A60086047F67F52C0F602024EF2A0233B
:1028C000C0F601038C201E90502100F0D7FE1E9907
:1028D000DDF87CC0209A22986B46C3F804C01A60C9
:1028E00047F67752C0F602024BF6F073C0F60103CA
:1028F000219300F0C3FEDDF87CC02099219B229833
:102900006A46C2F804C0116047F66A52C0F6020275
:10291000782100F0B3FE239807F052F823980CF0CA
:1029200073FD4FF4FA6002F069F8239800F046FC5A
:10293000FFF724BC45F2B410C2F200000078022870
:1029400040F0AA80FFE7FFE70120FFF7C5FB6946DB
:102950004FF6FF701A9048604FF47840086048F2D4
:102960004302C0F602024BF61003C0F601036920D1
:102970001C9078211B9100F081FE4FF4FA701D909D
:1029800002F03CF80020FFF7A7FB1A9A1B991C984D
:102990006B465A604FF404721A6047F66452C0F6F0
:1029A00002024BF6F073C0F6010300F067FE1D98BB
:1029B00002F024F8FFE745F26440C2F2000000781C
:1029C0000128C1D1FFE745F26441C2F200010020B5
:1029D0001990087045F2B411C2F200010870FFF7B7
:1029E0007BFB69464FF6FF70159048604FF404700A
:1029F0001690086047F67652C0F602024CF648433D
:102A0000C0F60103692018900F2100F037FE159AD7
:102A1000169869464A60086047F67F52C0F602027F
:102A20004EF2A023C0F601038C201490502100F038
:102A300025FE1499DDF854C0169A18986B46C3F811
:102A400004C01A6047F67752C0F602024BF6F073E4
:102A5000C0F60103179300F011FEDDF854C016997B
:102A6000179B18986A46C2F804C0116047F667526F
:102A7000C0F60202782100F001FE199806F0A0FFCE
:102A800019980CF0C1FC4FF4FA6001F0B7FF1998E7
:102A900000F094FBFFF772BBFFE7FFE745F26441EC
:102AA000C2F2000100201390087000F087FB139819
:102AB00045F2A811C2F20001088069464FF6FF7086
:102AC00048604FF40470086048F25F12C0F60202DA
:102AD0004BF6F073C0F601036920962100F0CEFD9D
:102AE00043F2F801C2F200010870FFE745F2A810B6
:102AF000C2F200000088B0F5FA7F72DBFFE745F212
:102B0000A811C2F200010020088069464FF6FF704C
:102B10001290086082205021109196222F2300F0FD
:102B2000ABFC40F20E00C2F20000008843F6072121
:102B3000C0F26D01A0FB011249F69A11C1F699117C
:102B4000A0FB011044F24541C0F24441A0FB013119
:102B5000C1EB0111A0EB810343F2AC00C2F2000013
:102B6000119047F6DC61C0F60201FDF7CFFB10992A
:102B7000119A12986B4658604FF4047018604EF228
:102B8000A023C0F601038C2000F078FD43F2F80189
:102B9000C2F20001087045F26440C2F20000007801
:102BA00001280ED1FFE745F26441C2F20001002086
:102BB000087043F2FC11C2F2000101200870FFF717
:102BC000DDBA40F20E00C2F20000008808B9FFE74B
:102BD0004FE040F20E01C2F2000108880A38088076
:102BE000FFE745F26640C2F200000078012807D1F5
:102BF000FFE743F24421C2F2000101200870FFE721
:102C000045F26640C2F200000078022807D1FFE7D3
:102C100043F24221C2F2000101200870FFE745F2B1
:102C20006640C2F20000007803280ED1FFE743F2AD
:102C30004321C2F200010120087000200F9006F02D
:102C4000BFFE0F980CF0E0FB13E0012001F0D6FE70
:102C500045F2A811C2F20001088801300880FFE7A0
:102C600045F26440C2F20000007801287FF43EAFD4
:102C7000FFE743F24420C2F200000078012817D198
:102C8000FFE743F24220C2F20000007801280FD192
:102C9000FFE743F24320C2F20000007801283ED053
:102CA000FFE740F20E00C2F200000088B8BBFFE769
:102CB00045F26641C2F200010020087069464FF6F5
:102CC000FF700C9048604FF40470086047F66E5235
:102CD000C0F602024CF64843C0F6010369200D908D
:102CE000962100F0CBFC0C9902460D9843F2F803B4
:102CF000C2F200030E931A706A4651604FF4784195
:102D0000116048F27912C0F602024BF61003C0F6C9
:102D10000103A02100F0B2FC0E990870FFE701202A
:102D200000F04CFA00200B9006F04AFE0B980CF0D5
:102D30006BFB69464FF6FF7048604FF40470086003
:102D400047F66152C0F602024CF64843C0F6010352
:102D50006920962100F092FC43F2F801C2F20001D2
:102D6000087043F24420C2F200000078012824D108
:102D7000FFE745F26641C2F200010020087043F20D
:102D80004421C2F20001087069464FF6FF704860A6
:102D90004FF44870086048F24612C0F602024BF643
:102DA0001003C0F601036920B42100F067FC43F270
:102DB000F801C2F20001087026E043F24420C2F29A
:102DC00000000078F8B9FFE745F26641C2F2000161
:102DD0000020087069464FF6FF7048604FF4784055
:102DE000086048F2D712C0F602024BF61003C0F694
:102DF00001036920B42100F041FC43F2F801C2F262
:102E000000010870FFE7FFE743F24220C2F2000032
:102E10000078012824D1FFE745F26641C2F20001A3
:102E20000020087043F24221C2F200010870694696
:102E30004FF6FF7048604FF44870086048F2121275
:102E4000C0F602024BF61003C0F601036920C02150
:102E500000F014FC43F2F801C2F20001087026E011
:102E600043F24220C2F200000078F8B9FFE745F2D1
:102E70006641C2F200010020087069464FF6FF70FB
:102E800048604FF47840086048F29D12C0F6020294
:102E90004BF61003C0F601036920C02100F0EEFBE1
:102EA00043F2F801C2F200010870FFE7FFE743F2C6
:102EB0004320C2F200000078012824D1FFE745F248
:102EC0006641C2F200010020087043F24321C2F2C1
:102ED0000001087069464FF6FF7048604FF4487073
:102EE000086048F22C12C0F602024BF61003C0F63E
:102EF00001036920CC2100F0C1FB43F2F801C2F2CA
:102F00000001087026E043F24320C2F2000000787E
:102F1000F8B9FFE745F26641C2F2000100200870EF
:102F200069464FF6FF7048604FF47840086048F2F9
:102F3000BA12C0F602024BF61003C0F60103692074
:102F4000CC2100F09BFB43F2F801C2F200010870B3
:102F5000FFE7FFE7FFE769464FF6FF7048604FF471
:102F60000470086048F21E22C0F602024BF6F073AD
:102F7000C0F6010369200F2100F080FB322001F030
:102F80003DFDFFE740F60000C4F20100082102F019
:102F900097F80028DFD0FFE745F26440C2F2000056
:102FA000007801281CD1FFE745F26441C2F200011C
:102FB00000200A90087069464FF6FF70086069208B
:102FC0000A21D622E82300F057FA0A9806F0F8FC06
:102FD0000A980CF019FA012000F0F0F8FFF7CEB8CB
:102FE0004FF4FA6001F00AFD45F26441C2F20001BB
:102FF000089100200990087000F0E0F84FF47A7012
:1030000001F0FCFC69464FF6FF70049008606920EF
:1030100007900A21D622E82300F02EFA0499079897
:103020006A4651604FF404710591116047F676527B
:10303000C0F602024CF64843C0F601030F2100F02F
:103040001DFB049A059869464A60086047F67F525E
:10305000C0F602024EF2A023C0F601038C200390BA
:10306000502100F00BFB0399DDF810C0059A07987A
:103070006B46C3F804C01A6047F67752C0F60202E6
:103080004BF6F073C0F60103069300F0F7FADDF893
:1030900010C00599069B07986A46C2F804C01160E3
:1030A00047F66752C0F60202782100F0E7FA45F2CF
:1030B0006741C2F200010120087008F06FFD089915
:1030C0000998087006F0A6FC3EB080BD84B003905D
:1030D00000208DF80700FFE79DF8070003280DDCAE
:1030E000FFE703989DF80720805C02A98854FFE75A
:1030F0009DF8070001308DF80700EDE70298009079
:10310000009804B07047000080B582B0ADF80600AA
:10311000BDF806006946086000214FF4A072F02354
:10312000084600F0A9F902B080BD000083B002900B
:10313000019100200090FFE700980199884209DA88
:10314000FFE70299009A00208854FFE700980130B9
:103150000090F1E703B0704780B545F2E810C2F285
:10316000000001F029F880BD84B003900291019223
:1031700000930398C16B026C012090404860009856
:1031800003990968486003984068102809D1FFE74F
:103190000198039909688860029803990968C860D2
:1031A00008E0029803990968886001980399096802
:1031B000C860FFE704B070477047000080B582B078
:1031C0008DF807009DF8072040F60040C4F201008A
:1031D0004FF4004101F08CFF9DF8071048F6EC20F9
:1031E000C0F60200FDF786F89DF8070002B080BD2A
:1031F00010B58AB08C4686460D980C99CDF824E01F
:10320000CDF820C00792ADF81A30ADF81810ADF81F
:1032100016000798007A8DF815000798006ABDF827
:103220001A1000EB410010F8400C8DF814009DF8C6
:1032300015009DF814104843ADF8120007988069F6
:1032400003900798C069BDF81A1000EB810050F890
:10325000800CADF80A00099808999DF814200244E2
:10326000013A9DF815300B44013B92B29BB280B2FB
:1032700089B205F011FE00200190FFE70198BDF82A
:10328000121088425CD2FFE70398BDF80A2001992A
:1032900002EBD102805C01F00701C840C00728B3EF
:1032A000FFE79DF8190043F20C01C4F20101086028
:1032B000FFE743F20800C4F201000068800700281D
:1032C00001D4FFE7F5E79DF8180043F20C01C4F2C2
:1032D00001010860FFE743F20800C4F20100006842
:1032E0008007002801D4FFE7F5E724E09DF81700E8
:1032F00043F20C01C4F201010860FFE743F2080049
:10330000C4F2010000688007002801D4FFE7F5E758
:103310009DF8160043F20C01C4F201010860FFE7BA
:1033200043F20800C4F2010000688007002801D4BD
:10333000FFE7F5E7FFE7FFE70198013001909DE720
:103340009DF814000AB010BD80B584B0ADF80E0031
:10335000ADF80C10ADF80A20ADF80830BDF80E003D
:10336000BDF80C30BDF80A10014401398AB2194683
:1033700005F092FD00200190FFE70198BDF80A10CA
:10338000884229DAFFE79DF8090043F20C01C4F2F4
:1033900001010860FFE743F20800C4F20100006881
:1033A0008007002801D4FFE7F5E79DF8080043F205
:1033B0000C01C4F201010860FFE743F20800C4F207
:1033C000010000688007002801D4FFE7F5E7FFE768
:1033D000019801300190D0E7BDF80A0004B080BD2B
:1033E00080B584B0ADF80E00ADF80C10ADF80A2031
:1033F000ADF80830BDF80E20BDF80C10BDF80A007D
:103400000844013883B2104605F046FD00200190C3
:10341000FFE70198BDF80A10884229DAFFE79DF816
:10342000090043F20C01C4F201010860FFE743F216
:103430000800C4F2010000688007002801D4FFE7FB
:10344000F5E79DF8080043F20C01C4F201010860A1
:10345000FFE743F20800C4F201000068800700287B
:1034600001D4FFE7F5E7FFE7019801300190D0E7CD
:10347000BDF80A0004B080BD80B586B084460898C7
:10348000ADF816C0ADF81410ADF81220ADF810303C
:10349000ADF80E00BDF80E00ADF80C00BDF912003D
:1034A000BDF9101048430290BDF81600BDF8141085
:1034B000BDF812200244013ABDF810300B44013B24
:1034C00092B29BB205F0E8FC00200190FFE7019862
:1034D0000299884229D2FFE79DF80D0043F20C01C2
:1034E000C4F201010860FFE743F20800C4F20100E2
:1034F00000688007002801D4FFE7F5E79DF80C007D
:1035000043F20C01C4F201010860FFE743F2080036
:10351000C4F2010000688007002801D4FFE7F5E746
:10352000FFE7019801300190D1E706B080BD0000AF
:1035300080B588B007900691059205984088ADF84F
:10354000120005980088ADF81000BDF81200BDF813
:1035500010104843ADF80E00059840680290079897
:103560000699BDF810200244013ABDF812300B4410
:10357000013B92B29BB280B289B205F08DFC002073
:103580000190FFE70198BDF80E1088422ED2FFE7A8
:103590000298019900EB4100407843F20C01C4F21B
:1035A00001010860FFE743F20800C4F2010000686F
:1035B0008007002801D4FFE7F5E70298019910F889
:1035C000110043F20C01C4F201010860FFE743F26D
:1035D0000800C4F2010000688007002801D4FFE75A
:1035E000F5E7FFE7019801300190CBE7BDF8100047
:1035F00008B080BD80B584B084460698ADF80EC092
:10360000ADF80C10ADF80A20ADF80830ADF80600A2
:10361000BDF80E00BDF80C10BDF80820BDF806304E
:10362000FFF7DEFEBDF80E00BDF80A1008440138B1
:10363000BDF80C10BDF80820BDF8063080B2FFF7C9
:10364000CFFEBDF80E00BDF80C10BDF80A20BDF885
:103650000630FFF779FEBDF80E00BDF80C10BDF87E
:1036600008201144BDF80A20BDF8063089B2FFF7E2
:103670006BFEBDF80A0004B080BD000010B58AB032
:103680008C4686460D980C99CDF824E0CDF820C0E4
:1036900007920693ADF81610ADF81400099804903F
:1036A0000898039000200290FFE707980299405C79
:1036B000D8B1FFE704980399069A079BDDF808C084
:1036C00013F80C30BDF816C0BDF81440EE46CEF825
:1036D0000440CEF800C0FFF78BFD01460498084473
:1036E0000490029801300290DFE704980AB010BD00
:1036F00080B58EB00D908DF833108DF832200020FB
:103700000B906A464FF404710691116002214FF448
:10371000A0721223FFF7B0FE06980D9A6946486022
:103720004FF6FF70079008604BF6F073C0F6010388
:103730000593052003210391FFF7A0FF9DF8332097
:103740009DF8323048F2CE01C0F602010DF12200A0
:103750000490FCF7DBFD0399049A059BDDF818E063
:103760000798EC46CCF804E0CCF80000FA20FFF70C
:1037700085FF0B900B980EB080BD000080B58EB019
:10378000ADF83600ADF834100C92ADF82E300020B4
:1037900005900021C4F2500111F0C0FC02460598CA
:1037A000039204914FF0804111F0B8FC0246039857
:1037B0000B46049911F07AFF12F00EF901460598B4
:1037C0000A91BDF83610ADF82610BDF83610BDF8D8
:1037D0002E20BDF834301A4401EB9211ADF82410BC
:1037E000BDF82410BDF82620891A0131ADF8221049
:1037F000ADF820000790FFE70798BDF82210884237
:1038000043DAFFE7BDF826000A998840BDF8341076
:103810000843ADF81A00BDF82E00BDF834100BF0C7
:1038200097FFADF81800BDF81A200C98BDF82010CD
:103830000844BDF8183069464FF47A7CC1F808C0D6
:103840004B60086045F22C20C2F20000A021022348
:1038500001F0BEFDBDF826000130ADF826000020C5
:10386000ADF83400BDF82E00BDF81810401AADF8C0
:103870002E00BDF81810BDF820000844ADF8200057
:10388000FFE7079801300790B6E70EB080BD000053
:1038900080B584B0ADF80E00ADF80C10BDF80E0088
:1038A000BDF80C1002AA01920423FFF767FF0198EC
:1038B000FFF70CFC04B080BD80B58EB0ADF83600CB
:1038C000ADF834100C92ADF82E3000200590002198
:1038D000C4F2500111F022FC0246059803920491B3
:1038E0004FF0804111F01AFC024603980B460499F0
:1038F00011F0DCFE12F070F8014605980A91BDF84F
:103900003610ADF82610BDF83610BDF82E20BDF8E3
:1039100034301A4401EB9211ADF82410BDF8241094
:10392000BDF82620891A0131ADF82210ADF820002B
:103930000790FFE70798BDF82210884246DAFFE7B4
:10394000BDF826000A998840BDF834100843ADF848
:103950001A00BDF82E00BDF834100BF0F9FEADF8DA
:103960001800BDF81A200C98BDF820100844BDF8C6
:10397000183069464FF47A7CC1F808C04B60086083
:1039800045F22C20C2F20000A021022301F090FF9A
:10399000BDF826000130ADF826000020ADF8340057
:1039A000BDF82E00BDF81810401AADF82E00BDF875
:1039B0001810BDF820000844ADF82000052001F0E3
:1039C0001DF8FFE7079801300790B3E70EB080BD00
:1039D00080B584B0ADF80E00ADF80C1002920299DB
:1039E00045F29910C2F2000001900CF02BF8019AF8
:1039F000BDF80E00BDF80C100423FFF75DFF04B006
:103A000080BD000080B5012001F092F980BD00006A
:103A100080B54FF4805001F08BF94FF4005001F065
:103A200087F980BD80B5022001F082F980BD0000D9
:103A300080B5042001F07CF980BD000080B508202D
:103A400001F076F980BD000080B5102001F070F91A
:103A500080BD000080B5202001F06AF980BD000023
:103A600081B0EFF3108072B60090FFE7FEE7000030
:103A700085B00390029100208DF807000090FFE7C9
:103A8000039890F82400012804D1FFE702208DF864
:103A90001300C3E00399012081F82400FFE7FFE74A
:103AA00002984068062812D8FFE703980068406B28
:103AB000029A1168526802EB8202053A1F23934072
:103AC00098439140084303990968486329E00298A4
:103AD00040680C2812D8FFE703980068006B029A30
:103AE0001168526802EB8202233A1F2393409843E5
:103AF0009140084303990968086311E0039800683E
:103B0000C06A029A1168526802EB8202413A1F238E
:103B1000934098439140084303990968C862FFE7BE
:103B2000FFE7029800680A2812D3FFE703980068AD
:103B3000C06802990A68896802EB42021E3A0723AC
:103B4000934098439140084303990968C86010E086
:103B500003980068006902990A68896802EB4202CA
:103B600007239340984391400843039909680861EB
:103B7000FFE702980068102805D0FFE70298006868
:103B8000112840D1FFE70398006842F20041C4F2D7
:103B9000010188422DD1FFE7039800688068000288
:103BA000002825D4FFE703980168886840F40000E6
:103BB000886002980068102819D1FFE740F22800B9
:103BC000C2F2000000684DF68361C4F21B31A0FB15
:103BD0000110800C00EB800040000090FFE700988F
:103BE00020B1FFE7009801380090F8E7FFE7FFE712
:103BF00008E00399886A40F02000886201208DF86F
:103C00000700FFE7FFE7FFE70399002081F82400A2
:103C1000FFE79DF807008DF81300FFE79DF81300FC
:103C200005B0704781B0009001B0704781B000903E
:103C300001B0704781B0009001B0704780B58CB082
:103C40000A9000208DF827000890079006900A98A7
:103C500020B9FFE701208DF82F0014E10A98806851
:103C600030B1FFE70A98007D08B1FFE7FFE7FFE703
:103C70000A98806A50B9FFE70A990020C8620A9939
:103C800081F824000A9800F003F9FFE70A98FEF78C
:103C900025F98DF827000A98806AC006002800F1EF
:103CA000E480FFE79DF82700002840F0DE80FFE772
:103CB0000A98806A40F0020020F488500A998862CD
:103CC0000A9908684968059143F60041C4F2010168
:103CD000884211D1FFE70A98C069B0F5402F04D19E
:103CE000FFE74FF40020049003E00A98C0690490B5
:103CF000FFE70498039003E00A98C0690390FFE788
:103D00000598039908430A99097B40EA41010798FD
:103D1000084307900A9881680120B1F5807F0290DE
:103D200008D0FFE70A9880680138B0FA80F04009AF
:103D30000290FFE702990898CA0740F48071002AB0
:103D400018BF084608900A98007D01281ED1FFE799
:103D50000A98007B70B9FFE70A9881694EF200006B
:103D6000CFF6FF7000EB41300899084340F4006043
:103D700008900AE00A99886A40F0200088620A994F
:103D8000C86A40F00100C862FFE7FFE70A980068D0
:103D9000406820F46940089908430A990968486016
:103DA0000A98006880684FF2FD71CFF6E171084013
:103DB000079908430A99096888600A988168012070
:103DC000B1F5807F019008D0FFE70A98806801383C
:103DD000B0FA80F040090190FFE7019800F001007F
:103DE000002818BF4FF48070B0F5807F09D1FFE73D
:103DF0000A9801690020CFF6F07000EB01500690A0
:103E0000FFE70A980068C06A20F47000069908432A
:103E10000A990968C8620A980068806840F6FE61DD
:103E2000CFF61F710840079988420CD1FFE70A9925
:103E30000020C8620A98806A40F0010020F0020069
:103E40000A99886210E00A98806A40F0100020F019
:103E500002000A9988620A99C86A40F00100C862A3
:103E600001208DF82700FFE708E00A99886A40F0F2
:103E70001000886201208DF82700FFE79DF82700D9
:103E80008DF82F00FFE79DF82F000CB080BD0000DB
:103E900080B58CB00B9000200A9009900890079094
:103EA0000B98006842F20041C4F2010188426DD1D2
:103EB000FFE7FFE741F21800C4F20200016841F495
:103EC00000710160006800F4007006900698FFE73A
:103ED000FFE741F21800C4F20200016841F010014E
:103EE0000160006800F0100005900598FFE7FFE70B
:103EF00041F21800C4F20200016841F008010160BB
:103F0000006800F0080004900498FFE70F20079075
:103F100003200190089041F20000C4F2010007A9BB
:103F2000029100F021FF019802990790089040F655
:103F30000040C4F2010000F017FF45F2E810C2F2A1
:103F4000000003900821C4F20201016000214160D9
:103F500081608022C2604FF4807202614FF48062FF
:103F6000426120228261C16100F068FC18B1FFE764
:103F7000FFF776FDFFE7FFE70B9845F2E811C2F285
:103F8000000101620B984862FFE7FFE70CB080BDBB
:103F900080B586B004900391029200208DF807004E
:103FA0000498006842F20041C4F20101884209D03D
:103FB000FFE70498006842F60001C4F2010188425C
:103FC00009D1FFE742F20440C4F20100006800F4A6
:103FD0007020009002E000200090FFE70098002889
:103FE00040F0DC80FFE7FFE7049890F82400012808
:103FF00004D1FFE702208DF81700D8E004990120D2
:1040000081F82400FFE7FFE70498FEF707F88DF832
:1040100007009DF80700002840F0B880FFE70498EB
:10402000806A40F4807040F6016188430499886298
:104030000498006842F60001C4F20101884209D1E7
:10404000FFE742F20440C4F20100006810F4702F50
:1040500003D018E00020B0B9FFE70499886A20F483
:10406000801088620498006840684005002809D5DF
:10407000FFE70498806A40F4805020F400500499CF
:104080008862FFE72CE00499886A40F48010886217
:104090000498006842F20041C4F20101884209D04C
:1040A000FFE70498006842F60001C4F2010188426B
:1040B00009D1FFE742F20440C4F201000068400564
:1040C000002803D40BE0012048B9FFE70498806A78
:1040D00040F4805020F4005004998862FFE7FFE725
:1040E0000498806AC004002806D5FFE70499C86ACE
:1040F00020F00600C86203E004990020C862FFE7D0
:10410000FFE70499002081F82400FFE70498016A82
:1041100041F66170C0F6000088620498016A42F2BC
:104120000500C0F60000C8620498016A41F6D97023
:10413000C0F600000863049801686FF00200086090
:1041400004980168886840F4807088600498016869
:10415000006A4C31039A029B00F0EAFB0498006865
:10416000806800F46020B0F5602F07D1FFE7049865
:104170000168886840F4A000886006E0049801683F
:10418000886840F480108860FFE706E0FFE7049944
:10419000002081F82400FFE7FFE703E001208DF80D
:1041A0000700FFE79DF807008DF81700FFE79DF86F
:1041B000170006B080BD000080B5ACB02B902B98E6
:1041C000C06B00682A902B980068006829902A9894
:1041D0002B99096CC8404007002840F17581FFE722
:1041E0009DF8A4004007002840F16E81FFE72B985E
:1041F000006800688006002807D4FFE72B98016854
:10420000086820F004000860FFE72B98006881210F
:10421000C4F202018842C0F0A880FFE72B98006832
:104220000821C4F20201884203D1FFE7042028904C
:1042300094E02B9800681C21C4F20201884203D14B
:10424000FFE74020279086E02B9800683021C4F2D9
:104250000201884204D1FFE74FF48060269077E0A6
:104260002B9800684421C4F20201884204D1FFE780
:104270004FF48040259068E02B9800685821C4F2E4
:104280000201884204D1FFE74FF48020249059E0D6
:104290002B9800686C21C4F20201884204D1FFE728
:1042A0004FF4800023904AE02B9800688021C4F2EC
:1042B0000201884204D1FFE74FF0806022903BE08A
:1042C0002B98006840F20841C4F20201884203D1F1
:1042D000FFE7042021902CE02B98006840F21C415D
:1042E000C4F20201884203D1FFE7402020901DE084
:1042F0002B98006840F23041C4F20201884204D198
:10430000FFE74FF480601F900DE02B98016840F2AA
:104310004442C4F202024FF48020914208BF4FF49D
:1043200080401F90FFE71F982090FFE72098219082
:10433000FFE721982290FFE722982390FFE7239838
:104340002490FFE724982590FFE725982690FFE723
:1043500026982790FFE727982890FFE7289840F2B3
:104360000441C4F202010860A5E02B98006808210E
:10437000C4F20201884203D1FFE704201E9094E0BA
:104380002B9800681C21C4F20201884203D1FFE788
:1043900040201D9086E02B9800683021C4F2020175
:1043A000884204D1FFE74FF480601C9077E02B989F
:1043B00000684421C4F20201884204D1FFE74FF4AF
:1043C00080401B9068E02B9800685821C4F20201DD
:1043D000884204D1FFE74FF480201A9059E02B98CF
:1043E00000686C21C4F20201884204D1FFE74FF457
:1043F000800019904AE02B9800688021C4F20201E5
:10440000884204D1FFE74FF0806018903BE02B9882
:10441000006840F20841C4F20201884203D1FFE77C
:10442000042017902CE02B98006840F21C41C4F245
:104430000201884203D1FFE7402016901DE02B982F
:10444000006840F23041C4F20201884204D1FFE723
:104450004FF4806015900DE02B98016840F24442C3
:10446000C4F202024FF48020914208BF4FF4804012
:104470001590FFE715981690FFE716981790FFE73D
:1044800017981890FFE718981990FFE719981A9055
:10449000FFE71A981B90FFE71B981C90FFE71C98FA
:1044A0001D90FFE71D981E90FFE71E980421C4F29F
:1044B00002010860FFE72B98C06A20B1FFE72B9844
:1044C000C16A8847FFE7B7E12A982B99096CC84071
:1044D0008007002840F17F81FFE79DF8A400800756
:1044E000002840F17881FFE72B980068006880067B
:1044F00000280BD4FFE72B980168086820F00A0019
:1045000008602B99012081F82100FFE72B980068B3
:104510008121C4F202018842C0F0A880FFE72B98F5
:1045200000680821C4F20201884203D1FFE702209B
:10453000149094E02B9800681C21C4F20201884278
:1045400003D1FFE72020139086E02B9800683021EC
:10455000C4F20201884204D1FFE74FF400701290C8
:1045600077E02B9800684421C4F20201884204D10C
:10457000FFE74FF40050119068E02B980068582135
:10458000C4F20201884204D1FFE74FF400301090DA
:1045900059E02B9800686C21C4F20201884204D1D2
:1045A000FFE74FF400100F904AE02B98006880213D
:1045B000C4F20201884204D1FFE74FF000700E9070
:1045C0003BE02B98006840F20841C4F202018842A7
:1045D00003D1FFE702200D902CE02B98006840F2F9
:1045E0001C41C4F20201884203D1FFE720200C9055
:1045F0001DE02B98006840F23041C4F2020188426D
:1046000004D1FFE74FF400700B900DE02B98016888
:1046100040F24442C4F202024FF40030914208BF1B
:104620004FF400500B90FFE70B980C90FFE70C98AD
:104630000D90FFE70D980E90FFE70E980F90FFE7A3
:104640000F981090FFE710981190FFE711981290C3
:10465000FFE712981390FFE713981490FFE7149860
:1046600040F20441C4F202010860A5E02B98006802
:104670000821C4F20201884203D1FFE702200A9018
:1046800094E02B9800681C21C4F20201884203D1F7
:10469000FFE72020099086E02B9800683021C4F2C3
:1046A0000201884204D1FFE74FF40070089077E0E0
:1046B0002B9800684421C4F20201884204D1FFE72C
:1046C0004FF40050079068E02B9800685821C4F21E
:1046D0000201884204D1FFE74FF40030069059E010
:1046E0002B9800686C21C4F20201884204D1FFE7D4
:1046F0004FF4001005904AE02B9800688021C4F226
:104700000201884204D1FFE74FF0007004903BE0C3
:104710002B98006840F20841C4F20201884203D19C
:10472000FFE7022003902CE02B98006840F21C4128
:10473000C4F20201884203D1FFE7202002901DE06D
:104740002B98006840F23041C4F20201884204D143
:10475000FFE74FF4007001900DE02B98016840F2E4
:104760004442C4F202024FF40030914208BF4FF4B9
:1047700000500190FFE701980290FFE70298039034
:10478000FFE703980490FFE704980590FFE705987A
:104790000690FFE706980790FFE707980890FFE765
:1047A00008980990FFE709980A90FFE70A98042102
:1047B000C4F202010860FFE7FFE72B99002081F8AF
:1047C0002000FFE72B98806A20B1FFE72B98816AD1
:1047D0008847FFE72FE02A982B99096CC84000070B
:1047E000002827D5FFE79DF8A4000007002821D561
:1047F000FFE72B980168086820F00E0008602B98EE
:10480000C26B016C012000FA01F151602B998863A1
:104810002B9981F82100FFE72B99002081F82000D7
:10482000FFE72B98006B20B1FFE72B98016B8847BF
:10483000FFE7FFE7FFE7FFE72CB080BD83B0019003
:1048400000200090019820B9FFE701208DF80B00AF
:104850006AE00198006840F20741C4F20201884210
:1048600018D8FFE7019908684FF6F872CBF6FD7289
:1048700010444CF6CD42CCF6CC42A0FB02026FF0C5
:10488000030000EA9200086401990020C4F20200CB
:10489000C86318E0019908684FF6F832CBF6FD724C
:1048A00010444CF6CD42CCF6CC42A0FB02026FF095
:1048B000030000EA92000864019940F20040C4F24B
:1048C0000200C863FFE70199022081F821000198E6
:1048D000006800680090009843F6F07188430090EB
:1048E00001994868D1F808C0CB680A6940EA0C0011
:1048F000184310434A6910438A691043C969014348
:10490000009808430090009801990968086001998F
:1049100000208863019A012182F82110019981F811
:1049200020008DF80B00FFE79DF80B0003B07047E7
:1049300080B586B0049003910292019300208DF817
:104940000300FFE7049890F82000012804D1FFE756
:1049500002208DF817004CE00499012081F8200016
:10496000FFE7FFE7049890F82100012832D1FFE724
:104970000499022081F8210004990020886304989A
:104980000168086820F00100086004980399029A01
:10499000019BFEF7E9FB0498C06A38B1FFE7049871
:1049A0000168086840F00E0008600CE00498016897
:1049B000086820F00400086004980168086840F066
:1049C0000A000860FFE704980168086840F00100E9
:1049D000086009E0FFE70499002081F82000FFE764
:1049E00002208DF80300FFE79DF803008DF8170003
:1049F000FFE79DF8170006B080BD000080B584B0C9
:104A0000039000F08DFB0290039801900198013013
:104A100048B1FFE740F25800C2F200000178019867
:104A200008440190FFE7FFE700F07AFB0299401A83
:104A30000199884201D2FFE7F6E704B080BD00008B
:104A400080B586B0ADF81600BDF81600B0F5005F71
:104A500069D1FFE740F60040C4F201004FF4005175
:104A600000F02EFB70B9FFE700F05AFB45F27841E9
:104A7000C2F20001086045F26541C2F20001012066
:104A800008704FE000F04CFB45F27841C2F20001A3
:104A90000968411A45F27040C2F20000016045F217
:104AA0006542C2F20002002111700068B0F5FA6F91
:104AB00012D3FFE745F26441C2F2000106200870FC
:104AC000BDF8161047F6E340C0F60200FBF712FCF3
:104AD0000120FDF701FB11E045F26441C2F2000143
:104AE000042008700120FDF7F7FABDF8161047F60C
:104AF000B640C0F60200FBF7FDFBFFE70020049084
:104B0000FFE7049848F29F61C0F20101884205DC8A
:104B1000FFE7FFE7049801300490F2E70020FDF77B
:104B2000DBFAFFE702E1BDF81600202825D1FFE7F8
:104B30000120FDF7D1FA45F26441C2F200010320E1
:104B40000870BDF8161047F6AB40C0F60200FBF740
:104B5000D1FB00200390FFE7039848F29F61C0F269
:104B60000101884205DCFFE7FFE70398013003906D
:104B7000F2E70020FDF7B0FAD7E0BDF816001028E4
:104B800025D1FFE70120FDF7A7FA45F26441C2F203
:104B9000000102200870BDF8161047F60350C0F659
:104BA0000200FBF7A7FB00200290FFE7029848F203
:104BB0009F61C0F20101884205DCFFE7FFE7029830
:104BC00001300290F2E70020FDF786FAACE0BDF874
:104BD0001600B0F5805F67D1FFE740F60040C4F2F1
:104BE00001004FF4805100F06BFA70B9FFE700F05C
:104BF00097FA45F27841C2F20001086045F265413A
:104C0000C2F20001012008704DE000F089FA45F27F
:104C10007841C2F200010968411A45F26C40C2F2C3
:104C20000000016045F26542C2F2000200211170ED
:104C30000068B0F5FA6F11D3FFE745F26441C2F2A4
:104C4000000105200870BDF8161047F6D440C0F6E4
:104C50000200FBF74FFB05F011FE10E045F2644146
:104C6000C2F2000101200870FDF736FABDF81610F7
:104C700047F6C540C0F60200FBF73CFBFFE700200B
:104C80000190FFE7019848F29F61C0F2010188425C
:104C900005DCFFE7FFE7019801300190F2E7002013
:104CA000FDF71AFAFFE73EE0BDF8160008280FD11D
:104CB000FFE7BDF8161047F67840C0F60200FBF794
:104CC00019FB45F26641C2F200010120087029E09B
:104CD000BDF8160002280FD1FFE745F26641C2F287
:104CE000000102200870BDF8161047F68940C0F692
:104CF0000200FBF7FFFA14E0BDF8160001280FD1FF
:104D0000FFE745F26641C2F2000103200870BDF8DA
:104D1000161047F69A40C0F60200FBF7EBFAFFE7E1
:104D2000FFE7FFE7FFE7FFE7FFE7FFE706B080BD2C
:104D300080B582B0ADF8060040F21440C4F2010024
:104D40000068BDF8061008420CD0FFE7BDF8060069
:104D500040F21441C4F201010860BDF80600FFF7FB
:104D60006FFEFFE702B080BD92B01190109100205D
:104D70000F900B90FFE7109800680F99C84000282B
:104D800000F09B81FFE70F99012088400E9010985A
:104D900000680E9908400D900D980E99884240F0D9
:104DA0008881FFE7109840680790002851D0FFE7FE
:104DB000079801283AD0FFE7079802283FD0FFE77D
:104DC000079803285FD0FFE70798112832D0FFE744
:104DD0000798122838D0FFE707980021C1F2110187
:104DE000884236D0FFE707980021C1F212018842BD
:104DF0002FD0FFE707980021C1F22101884228D077
:104E0000FFE707980021C1F22201884221D0FFE785
:104E100007980021C1F2310188421AD0FFE70798B4
:104E20000021C1F23201884213D02FE01098C068EF
:104E30000B902CE01098C06804300B9027E010987D
:104E4000C06808300B9022E01098C0680C300B90BE
:104E50001DE01098806818B9FFE704200B9011E05E
:104E600010988068012806D1FFE708200B900E9863
:104E70001199086105E008200B900E98119948617E
:104E8000FFE7FFE703E000200B9000E0FFE70D984D
:104E9000FF2803D8FFE71198069003E0119804302B
:104EA0000690FFE706980A900D98FF2804D8FFE7C0
:104EB0000F988000059006E00F996FF01F0000EB3F
:104EC00081000590FFE7059809900A980068099A03
:104ED0000F21914088430B99914008430A9908603B
:104EE0001098C079C006002840F1E280FFE7FFE794
:104EF00041F21800C4F20200016841F001010160B2
:104F0000006800F0010008900898FFE70F9820F073
:104F100003000821C4F2010140580C900F9800F0E2
:104F2000030081000F2000FA01F10C9888430C90D7
:104F3000119840F60001C4F20101884203D1FFE755
:104F40000020049042E0119840F60041C4F20101B3
:104F5000884203D1FFE70120039034E0119841F229
:104F60000001C4F20101884203D1FFE70220029050
:104F700026E0119841F20041C4F20101884203D1B8
:104F8000FFE70320019018E0119841F60001C4F2F8
:104F90000101884203D1FFE7042000900AE0119943
:104FA00041F60042C4F201020620914208BF0520EA
:104FB0000090FFE700980190FFE701980290FFE75B
:104FC00002980390FFE703980490FFE704980F9975
:104FD00001F00301890000FA01F10C9808430C90DC
:104FE0000C980F9921F003010822C4F201028850A5
:104FF00010988079C006002809D5FFE70D9A40F285
:105000000841C4F2010108681043086008E00D9AE5
:1050100040F20841C4F20101086890430860FFE7CC
:10502000109880798006002809D5FFE70D9A40F294
:105030000C41C4F2010108681043086008E00D9AB1
:1050400040F20C41C4F20101086890430860FFE798
:10505000109880798007002809D5FFE70D9A40F263
:105060000441C4F2010108681043086008E00D9A89
:1050700040F20441C4F20101086890430860FFE770
:1050800010988079C00748B1FFE70D9A40F20041BF
:10509000C4F2010108681043086008E00D9A40F26C
:1050A0000041C4F20101086890430860FFE7FFE790
:1050B000FFE70F9801300F905DE612B070470000D7
:1050C00082B00190ADF8021001988068BDF802101E
:1050D000084204D0FFE701208DF8010003E0002022
:1050E0008DF80100FFE79DF8010002B07047000055
:1050F00082B00190ADF802108DF801209DF80100FA
:1051000028B1FFE7BDF802000199086105E0BDF88C
:105110000200000401990861FFE702B07047000037
:1051200045F22C50C2F200000068704780B58EB086
:105130000C900C9820B9FFE701208DF8370043E16F
:105140000C9890F83D0040B9FFE70C99002081F8D9
:105150003C000C9800F0B4FCFFE70C99242081F887
:105160003D000C980168086820F0010008600C9868
:105170000168086840F4004008600C9801680868FD
:1051800020F40040086001F087F80A900C9840680D
:1051900048F2A061C0F2010188420BD8FFE70A99EA
:1051A00048F28042C0F21E020020914238BF012026
:1051B00009900AE00A9940F60012C0F23D02002070
:1051C000914238BF01200990FFE70998012804D1D6
:1051D000FFE701208DF83700F6E00A984DF683616D
:1051E000C4F21B31A0FB0110800C0B900C980068DE
:1051F000406820F03F000B9908430C99096848600B
:105200000C980068006A20F03F0008900C984068F5
:1052100048F2A061C0F20101884204D8FFE70B9870
:10522000013007900EE00B984FF49671484344F616
:10523000D351C1F26201A0FB0101012000EB9110EA
:105240000790FFE70898079908430C9909680862D6
:105250000C980068C0694CF6FF71884306900C9862
:10526000406848F2A061C0F2010188421FD8FFE700
:105270000A9801380C9949684900B0FBF1F00130F7
:105280006FF31F30032803D8FFE7042005900BE0DD
:105290000A9801380C9949684900B0FBF1F00130D7
:1052A0006FF31F300590FFE7059804904CE00C98D1
:1052B000806868B9FFE70A9801380C99496801EBE2
:1052C0004101B0FBF1F001306FF31F3003900DE0AE
:1052D0000A9801380C99496819225143B0FBF1F042
:1052E0000130042161F31F300390FFE703980005AC
:1052F00018B9FFE70120029023E00C98806868B994
:10530000FFE70A9801380C99496801EB4101B0FBAD
:10531000F1F001306FF31F3001900DE00A98013871
:105320000C99496819225143B0FBF1F00130042176
:1053300061F31F300190FFE7019840F400400290B4
:10534000FFE702980490FFE70698049908430C9938
:105350000968C8610C980068006820F0C0000C9BC8
:105360001968DA691B6A1A43104308600C980068D0
:10537000806848F2FF3188430C9A1168D36812693B
:105380001A43104388600C980068C06820F0FF0042
:105390000C9B19685A699B691A431043C8600C98A2
:1053A0000168086840F0010008600C99002008645A
:1053B0000C9A202182F83D100C9908630C9981F811
:1053C0003E008DF83700FFE79DF837000EB080BD36
:1053D00010B590B0844614981398DDF848E0CDF8E5
:1053E00028C0ADF82610ADF82420ADF82230ADF875
:1053F000200000200790FFF793FE06900A9890F88F
:105400003D00202840F04B82FFE70A9806996A4643
:1054100011600221C0F210010122192303F0D0F91A
:1054200020B1FFE702208DF82F003CE2FFE70A9849
:1054300090F83C00012804D1FFE702208DF82F00EE
:1054400031E20A99012081F83C00FFE7FFE70A9862
:1054500000680068C00738B9FFE70A980168086863
:1054600040F001000860FFE70A980168086820F42E
:10547000006008600A99222081F83D000A994020C6
:1054800081F83E000A990020086412980A9948623F
:10549000BDF820000A9948850A98408D0A99088528
:1054A0000A990020CFF6FF70C8620A98BDF826104E
:1054B000BDF82420BDF82230DDF850C0069CEE4631
:1054C000CEF80440CEF800C002F094FF20B1FFE710
:1054D00001208DF82F00E6E10A98008DA0B9FFE7C2
:1054E000FFE7002005900A980068406905900A9837
:1054F0000068806905900598FFE70A9801680868C8
:1055000040F4007008605DE00A98008D01281FD10A
:10551000FFE70A980168086820F480600860EFF3EC
:10552000108072B60F90FFE7002004900A98006880
:10553000406904900A980068806904900498FFE725
:105540000A980168086840F40070086062B638E0A4
:105550000A98008D02281FD1FFE70A9801680868A1
:1055600040F400600860EFF3108072B60E90FFE721
:10557000002003900A980068406903900A98006828
:10558000806903900398FFE70A980168086820F48F
:105590008060086062B613E00A980168086840F409
:1055A00080600860FFE7002002900A980068406968
:1055B00002900A980068806902900298FFE7FFE76E
:1055C000FFE7FFE7FFE70A98008D002800F055810C
:1055D000FFE70A98008D032800F20781FFE70A9889
:1055E000008D01281ED1FFE70A981499069A03F04E
:1055F00015FA20B1FFE701208DF82F0053E10A983A
:10560000006800690A99496A08700A99486A013075
:1056100048620A99088D013808850A99488D013831
:105620004885E1E00A98008D022841D1FFE70A98F9
:10563000149B06996A4611600421C0F20101002200
:1056400003F0BEF820B1FFE701208DF82F002AE11A
:10565000EFF3108072B60D900A980168086840F464
:10566000007008600A98006800690A99496A087021
:105670000A99486A013048620A99088D01380885FC
:105680000A99488D0138488562B60A980068006911
:105690000A99496A08700A99486A013048620A9969
:1056A000088D013808850A99488D013848859AE0A7
:1056B0000A98149B06996A4611600421C0F2010100
:1056C000002203F07DF820B1FFE701208DF82F00C4
:1056D000E9E00A980168086820F480600860EFF348
:1056E000108072B60C900A98006800690A99496A9D
:1056F00008700A99486A013048620A99088D013891
:1057000008850A99488D0138488540F22800C2F280
:105710000000006848F21F51C5F2EB11A0FB011018
:10572000C00844F6D351C1F26201A0FB0110800908
:10573000232148430790FFE707980138079007980F
:10574000D0B9FFE70A99002008630A9A202182F85D
:105750003D100A9981F83E000A99086C40F020003B
:10576000086462B6FFE70A99002081F83C00FFE771
:1057700001208DF82F0096E0FFE70A980068406945
:1057800000F004010020B0EB910FD5D0FFE70A989C
:105790000168086840F4007008600A9800680069B1
:1057A0000A99496A08700A99486A013048620A9958
:1057B000088D013808850A99488D0138488562B6F8
:1057C0000A98006800690A99496A08700A99486A43
:1057D000013048620A99088D013808850A99488D78
:1057E00001384885FFE7FFE746E00A981499069AD2
:1057F00003F014F920B1FFE701208DF82F0052E0EB
:105800000A98006800690A99496A08700A99486A02
:10581000013048620A99088D013808850A99488D37
:10582000013848850A980068406900F004010120A9
:10583000B0EB910F1FD1FFE70A98008D032807D125
:10584000FFE70A980168086820F480600860FFE7B5
:105850000A98006800690A99496A08700A99486AB2
:10586000013048620A99088D013808850A99488DE7
:1058700001384885FFE7FFE7A5E60A99202081F86F
:105880003D000A99002081F83E00FFE70A990020B8
:1058900081F83C00FFE700208DF82F0003E0022094
:1058A0008DF82F00FFE79DF82F0010B010BD00000D
:1058B00010B588B084460C980B98DDF828E0CDF838
:1058C00018C0ADF81610ADF81420ADF81230ADF8D0
:1058D0001000FFF725FC0390069890F83D00202863
:1058E00040F0E680FFE7069803996A4611600221BE
:1058F000C0F210010122192302F062FF20B1FFE77C
:1059000002208DF81F00D7E0FFE7069890F83C00D2
:10591000012804D1FFE702208DF81F00CCE0069992
:10592000012081F83C00FFE7FFE706980068006867
:10593000C00738B9FFE706980168086840F0010021
:105940000860FFE706980168086820F400600860B6
:105950000699212081F83D000699402081F83E00FB
:105960000699002008640A9806994862BDF810005C
:10597000069948850698408D069908850699002065
:10598000CFF6FF70C8620698BDF81610BDF8142057
:10599000BDF81230DDF830C0039CEE46CEF804406E
:1059A000CEF800C002F018FE20B1FFE701208DF80C
:1059B0001F0081E0FFE70698008D002849D0FFE72F
:1059C00006980C99039A03F097F880B1FFE70698C0
:1059D000006C042807D1FFE706980168086840F4C6
:1059E00000700860FFE701208DF81F0064E0069852
:1059F0000168406A007808610699486A0130486287
:105A00000699088D013808850699488D0138488522
:105A100006980068406900F004010120B0EB910F86
:105A200016D1FFE70698008D90B1FFE70698016850
:105A3000406A007808610699486A01304862069910
:105A4000088D013808850699488D01384885FFE79B
:105A5000B1E706980C99039A02F05CFE80B1FFE76B
:105A60000698006C042807D1FFE7069801680868CB
:105A700040F400700860FFE701208DF81F001BE074
:105A800006980168086840F40070086006992020B4
:105A900081F83D000699002081F83E00FFE7069955
:105AA000002081F83C00FFE700208DF81F0003E094
:105AB00002208DF81F00FFE79DF81F0008B010BD01
:105AC00080B588B007900020069005900490039060
:105AD0000798006845F60001C4F2000188422DD104
